:020000040800F2
:1000000050050020A9010008451C0008B71700088A
:100010002D1C0008B502000839220008000000006D
:10002000000000000000000000000000751C000837
:10003000B702000800000000471C0008771C0008F9
:10004000C3010008C3010008C3010008C301000880
:10005000C3010008C3010008C3010008C301000870
:10006000C3010008C3010008C3010008C301000860
:10007000C3010008C3010008C3010008C301000850
:10008000C3010008C3010008C3010008000000000C
:10009000000000000000000000000000C301000894
:1000A000C3010008C3010008C3010008C301000820
:1000B000C3010008C3010008211D0008C301000896
:1000C000C3010008C3010008C3010008C301000800
:1000D000C30100082D220008C30100080000000031
:1000E000C3010008C3010008C301000800000000AC
:1000F000000000000000000000000000C301000834
:1001000000000000C3010008C3010008C30100088B
:1001100000000000000000000000000000000000DF
:10012000C3010008C3010008C3010008C30100089F
:10013000C3010008000000000000000000000000F3
:10014000000000000000000000000000C3010008E3
:10015000C3010008C3010008C3010008C30100086F
:10016000C3010008C30100080000000000000000F7
:10017000000000000000000000000000000000007F
:1001800000000000C30100080000000000000000A3
:10019000C3010008DFF80CD000F07AF800480047EF
:1001A000792200085005002006488047064800478D
:1001B000FEE7FEE7FEE7FEE7FEE7FEE7FEE7FEE717
:1001C000FEE7FEE7111D0008950100082DE9F05F2C
:1001D0000546002092469B468846064681464024B6
:1001E0001BE0284641464746224600F041F8534668
:1001F0005A46C01A914110D311461846224600F0C3
:1002000028F82D1A67EB01084F46224601200021ED
:1002100000F01FF817EB00094E41201EA4F1010465
:10022000DFDC484631462A464346BDE8F09FD2B25D
:1002300001E000F8012B491EFBD270470022F6E7CF
:1002400010B513460A4604461946FFF7F0FF20464C
:1002500010BD202A04DB203A00FA02F1002070478A
:100260009140C2F1200320FA03F3194390407047F4
:10027000202A04DB203A21FA02F00021704721FAFB
:1002800002F3D040C2F12002914008431946704762
:10029000064C074D06E0E06840F0010394E80700D3
:1002A00098471034AC42F6D3FFF778FFB822000825
:1002B000D8220008FEE7704772B6FEE72DE9F0414C
:1002C0000446876D00F050F9064694F83500002585
:1002D000022806D08020606584F834500120BDE8F3
:1002E000F0812068016821F01601016020684169F1
:1002F00021F080014161206C08B9A06C20B1206818
:10030000016821F0080101602068016821F0010105
:1003100001600CE000F028F9801B052807D9202097
:100320006065032084F8350084F83450D7E72068EE
:100330000068C007EED194F85C103F208840B86098
:10034000012084F8350084F834500020C7E790F885
:100350003510022903D08021416501207047052115
:1003600080F835100068016821F00101016000206B
:10037000704700002DE9F84FDFF8B8A100220124F2
:1003800003254FF00F090AF1040BAAF1040E00BF78
:100390000B6804FA02F63340B34273D10F7907F0C9
:1003A0000307012F01D0022F16D187684FEA4208B8
:1003B00005FA08FC27EA0C07D1F80CC00CFA08FC77
:1003C0004CEA070CC0F808C04768B7430E79C6F37B
:1003D000001696403E4346600E79F643B6070DD0B0
:1003E000C768560005FA06FC27EA0C07D1F808C0D2
:1003F0000CFA06FC4CEA070CC0F80CC00E7906F0AB
:100400000306022E10D1D60800EB8608D8F820602B
:1004100057074FEAD76C09FA0CF7BE430F6907FA82
:100420000CF73743C8F8207006684FEA420C05FA0B
:100430000CF7BE430F7907F0030707FA0CF73743B1
:1004400007604E6816F4403F6DD03B4E376847F466
:1004500080473760366822F0030706F4804600962E
:10046000364E07EB060CDCF8086897073F0F09FAD1
:1004700007F826EA0806DFF8C880404503D14FF0A8
:1004800000081EE04FE0DFF8BC80404502D14FF08D
:10049000010816E0DFF8B080404502D14FF00208B5
:1004A0000FE0DFF8A880404502D14FF0030808E0D4
:1004B000DFF89C80404502D14FF0040801E04FF086
:1004C000070808FA07F848EA0608CCF80888DAF8B6
:1004D00000605746D1F804C09E435FEACC2C00D59B
:1004E0001E433E60DBF800605F46D1F804C09E43C7
:1004F0005FEA8C2C00D51E433E60DEF80060774634
:10050000D1F804C09E435FEA8C3C00D51E433E6098
:10051000084F083F3E68D1F804C09E435FEACC3CD8
:1005200000D51E433E60521C102AFFF431AFBDE8D7
:10053000F88F0000083C0140443802400030014080
:10054000000002400004024000080240000C02408B
:10055000001002400069084000D0012070470AB135
:10056000816170470904FBE701488068704700001B
:1005700000000020024881680278114481607047C1
:10058000000000200B4810B5016841F400710160C3
:10059000016841F480610160016841F4807101608B
:1005A000032000F06FF80F2000F006F800F024F8A8
:1005B000002010BD003C024070B50D4D04464FF4C4
:1005C0007A712878B1FBF0F00A490968B1FBF0F0C4
:1005D00000F00AFB48B9102C07D200222146501E19
:1005E00000F030F800206C6070BD012070BD00008C
:1005F000000000200C0000200A4808B5016841F402
:1006000080410160006800F4804000900548001FB0
:10061000016841F080510160006800F08050009056
:1006200008BD000044380240002809DB00F01F022A
:10063000012191404009800000F1E020C0F8001144
:1006400070470000F0B40E4B1B680C46C3F3022346
:10065000C3F10705042D00D90425191D072901D26E
:10066000002300E0DB1E012606FA05F1491E2140A9
:1006700099409E40761E16403143F0BC01F0DDBD2E
:100680000CED00E0064900F0070208684FF6FF0392
:10069000184040EA0220034A1043086070470000F7
:1006A0000CED00E00000FA052DE9F0470E460500CC
:1006B00065D0DFF81481D8F80000F7B200F0070029
:1006C000B04207D288F80070D8F8000000F00700A8
:1006D000B04254D128683D4C810712D5400703D55C
:1006E000206840F4E05020602878000703D5206897
:1006F00040F4604020602068A96820F0F0000843C2
:1007000020602878C0072DD0304968680839012852
:1007100012D0022813D0032811D0096889070029B4
:100720002DDA216821F0030101432160FFF71CFF4E
:10073000814641F2883A0EE009688903EFE70968CB
:100740008901ECE7FFF710FFA0EB0901514502D941
:100750000320BDE8F0872068696800F00C00B0EB6A
:10076000810FEFD1D8F80010404601F00701B142E7
:1007700007D90770006800F00700B04201D00120DF
:10078000E7E72878400705D52068E96820F4E050BD
:10079000084320602878000706D52068296920F4DE
:1007A000604040EAC100206000F038F82168084A43
:1007B000C1F30311515CC84006490860064800684F
:1007C000FFF7FAFE0020C4E7003C02400838024070
:1007D0009E2200080C000020040000200448054967
:1007E00000680968044AC1F38221515CC84070471F
:1007F0000C00002008380240AE22000804480549D9
:1008000000680968044AC1F34231515CC84070472E
:100810000C00002008380240AE220008154810B530
:10082000006810F00C02144813D04110042A0FD0B5
:10083000082A0ED10F4C241F2268236802F03F02C1
:100840005B0207D52068C0F38810A0FB010106E019
:10085000084610BD2168C1F38811A1FB00010023E7
:10086000FFF7B4FC2168C1F30141491C4900B0FB0A
:10087000F1F010BD083802400024F4002DE9F84FD3
:1008800004006ED02078DFF84C93C007A9F104056E
:100890004AD009F104000168C1F38101012908D09F
:1008A0000068C0F3810002280AD1D9F80000400294
:1008B00006D52868800337D560680028E1D033E08A
:1008C0006068B0F5803F10D0B0F5A02F286810D038
:1008D00020F480302860286820F480202860606838
:1008E000A8B1FFF741FE06460DE0286840F48030CD
:1008F000F4E740F480202860F7E700BFFFF734FEFC
:10090000801B642873D828688003F7D50CE0FFF7B4
:100910002BFE064605E000BFFFF726FE801B64287D
:10092000F0D828688003F7D42078DFF8AC828007FD
:100930004FF0000A3ED5A748001D016811F00C0FCA
:1009400008D00068C0F3810002280BD1D9F800005C
:10095000400207D42868800716D5E068012800D136
:1009600012E033E1E068B8B10120C8F80000FFF7F9
:10097000FBFD064605E000BFFFF7F6FD801B0228E1
:10098000C0D828688007F7D52868216920F0F800CA
:1009900040EAC10028600DE0C8F800A0FFF7E4FDC0
:1009A000064604E0FFF7E0FD801B02281FD82868F8
:1009B0008007F7D42078000722D5864F87486169E1
:1009C000703771B101210160FFF7CEFD064604E0EA
:1009D000FFF7CAFD801B022809D838688007F7D5C1
:1009E0000EE0C0F800A0FFF7BFFD064605E082E07C
:1009F000FFF7BAFD801B02287DD838688007F7D43E
:100A00002078400768D5DFF8CCB100270BF13C0B0C
:100A1000DBF80000C0000BD4DBF8001041F080517F
:100A2000CBF80010DBF80000012700F080500090A8
:100A30006B4E3068C00510D4306840F48070306070
:100A4000FFF792FD009005E0FFF78EFD0099401A38
:100A5000022850D83068C005F6D55E4EA0686C36C6
:100A600001280FD00528306810D020F00100306038
:100A7000306820F004003060A068B8B1FFF774FD62
:100A800000900FE0306840F00100F4E740F004000F
:100A90003060F7E7FFF768FD0099411A41F28830AE
:100AA000814266D830688007F4D50EE0FFF75CFD20
:100AB000009007E0FFF758FD0099411A41F2883095
:100AC000814256D830688007F4D42FB1DBF800108B
:100AD00021F08051CBF80010A069C8B33D49091D31
:100AE0000968C1F3810102294AD00228504607D083
:100AF000C8F8600000E03CE0FFF736FD04463BE04C
:100B00004746C8F86000FFF72FFD064605E000BF26
:100B1000FFF72AFD801B02282BD828688001F7D414
:100B2000D4E907010843A16A2E4A490802EB0141B2
:100B3000626A41EA8211084394F82C1040EA01618C
:100B4000C9F8001001203866FFF70EFD044606E0E4
:100B50003EE000BFFFF708FD001B022809D8286807
:100B60008001F7D534E000BFFFF7FEFC001B022830
:100B700002D90320BDE8F88F28688001F4D427E06B
:100B80000128F7D0D9F80000E26900F48001914211
:100B90001CD1226A00F03F01914217D147F6C07183
:100BA000626A0140B1EB821F10D1A26A4FF0FF339D
:100BB00000F4403103EB5202B1EB024F06D194F83E
:100BC0002C1000F07060B0EB016F01D00120D1E774
:100BD0000020CFE70438024000004742800E474221
:100BE000007000400000FFFF10B5401EB0F1807F94
:100BF00001D3012010BD4FF0E02460610F21601788
:100C000001F01BFB0020A06107202061002010BD27
:100C10007047704770B590F83C20012A2CD0012411
:100C200080F83C40022280F83D2003685A689D68A5
:100C300022F070060A6832435A60104B02689A42EA
:100C40000ED0B2F1804F0BD00D4B9A4208D00D4B15
:100C50009A4205D00C4B9A4202D00C4B9A4204D1D6
:100C6000496825F080031943916080F83D400021D8
:100C700080F83C10084670BD022070BD00000140A5
:100C80000004004000080040000C0040004001400B
:100C90002DE9F04105460068494988427ED1287F08
:100CA00001281ED002281ED004281ED0082875D185
:100CB0000324A100284600F099FBDFF8088142498F
:100CC000042618F804200827B2B341F82400A00035
:100CD0000DD0B6EB840F14D12868016A21F0A00171
:100CE00016E00024E5E70124E3E70224E1E72868B1
:100CF000016A21F00A0101622868016A41F00201DB
:100D000045E02868B7EB840F016A0AD121F420611D
:100D10000162B6EB840F07D12868016A41F0200117
:100D200035E021F42041F3E72868B7EB840F016A2E
:100D300003D141F400712AE002E041F4005126E0C1
:100D4000214A103242F824001D4A51F824102C3256
:100D50001268884201D3401A01E0511A08441A4926
:100D6000203141F82400214600F012FFA00008D0F5
:100D7000B6EB840F14D12868016A21F0A00116E0B7
:100D80000CE02868016A21F00A01016210E00162AA
:100D900018F8041091B1002108F80410BDE8F081A2
:100DA0002868B7EB840F016A05D121F42061016244
:100DB0002868016AEBE721F42041F8E70121EBE71D
:100DC0000008004018000020100100202DE9F0412B
:100DD000054690F83C0000260C46012810D0012062
:100DE00085F83C0072B1042A1CD0082A2CD00C2AA9
:100DF00050D00126002085F83C003046BDE8F08147
:100E00000220FBE7D4E90012E368286801F08AF8C1
:100E10002868816921F00C01816128688169A268D4
:100E200011430FE0D4E90012E368286801F0B0F83C
:100E30002868816921F44061816128688169A2681C
:100E400041EA02218161D5E72868D4E9002C277B9B
:100E5000016A21F480710162C169036A21F0030112
:100E600041EA0C0121F0F00C39074FF420674CEAFD
:100E7000116123F4206307EA02221A43C16102626E
:100E80002868C16921F00C01C1612868C169A268A4
:100E9000114328E02868D4E90027E168036A23F4B5
:100EA00080530362D0F81CC0036A2CF4407C4CEAE7
:100EB00007274FF6FF7C27F470470CEA01313943CE
:100EC0004FF4204723F4204307EA02321A43C1615A
:100ED00002622868C16921F44061C1612868C16962
:100EE000A26841EA0221C16184E710B5040003D081
:100EF00094F83D0010B107E0012010BD002084F8F7
:100F00003C00204600F01EF8022084F83D00211D20
:100F1000206800F00BFF012084F8460084F83E00B2
:100F200084F83F0084F8400084F8410084F84200CF
:100F300084F8430084F8440084F8450084F83D00B8
:100F4000002010BD10B586B0044614216846FFF796
:100F500075F917492068884227D116480021026890
:100F600042F004020260006800F00400059011489D
:100F70001038026842F002020260006800F00200CD
:100F800005904FF4707000900220CDE90101CDE989
:100F9000031069460848FFF7EDF9002211461E20AC
:100FA000FFF750FB1E20FFF73FFB06B010BD00000F
:100FB00000080040403802400004024030B50446BA
:100FC000002551B104290DD0082910D094F84120F2
:100FD00094F84500012A11D10EE094F83E2094F8CF
:100FE0004200F7E794F83F2094F84300F2E794F8C2
:100FF000402094F84400EDE7012801D0012030BDE5
:10100000022059B1042912D0082919D084F84100CE
:1010100084F845000C293ED001253AE084F83E00D2
:1010200084F842002068C26842F0020210E084F8AE
:101030003F0084F843002068C26842F0040207E0E1
:1010400084F8400084F844002068C26842F0080236
:10105000C2600122206800F0B5FE11492068884274
:101060000ED0B0F1804F0BD00E49884208D00E4907
:10107000884205D00D49884202D00D49884204D1EA
:10108000816801F00701062903D0016841F00101E0
:101090000160284630BD2068C26842F01002D7E7E0
:1010A000000001400004004000080040000C004027
:1010B0000040014070B50446006801694FF000052A
:1010C000C943890715D4C168C943890711D4E91EEA
:1010D000016101202077206880698007204602D0C6
:1010E000FFF7D6FD04E000F0D7F8204600F07CF9C9
:1010F000257720680169C943490717D4C168C943E6
:10110000490713D46FF004010161022020772068A1
:10111000806910F4407F204602D0FFF7B9FD04E05B
:1011200000F0BAF8204600F05FF9257720680169E1
:10113000C943090716D4C168C943090712D46FF01F
:1011400008010161042020772068C06980072046DB
:1011500002D0FFF79DFD04E000F09EF8204600F06D
:1011600043F9257720680169C943C90617D4C168C6
:10117000C943C90613D46FF010010161082020771C
:101180002068C06910F4407F204602D0FFF780FD40
:1011900004E000F081F8204600F026F92577206869
:1011A0000169C943C90708D1C168C943C90704D146
:1011B000891E0161204600F018F920680169C943C1
:1011C000090609D4C168C943090605D46FF0800136
:1011D00001612046FFF71CFD20680169C9434906EB
:1011E00009D4C168C943490605D46FF040010161C3
:1011F000204600F010F920680169C94389060BD424
:10120000C168C943890607D46FF0200101612046F7
:10121000BDE87040FFF7FDBC70BD000030B587B081
:10122000044614216846FFF709F8174920688842E8
:1012300027D116480024016841F0040101600168CB
:1012400001F004010591016841F0020101600068AC
:10125000022500F0020005904FF440700090CDE9A7
:10126000015469460A48CDE90345FFF783F8302069
:101270000090CDE9015469460648CDE90345FFF7E2
:1012800079F807B030BD000000040040303802405B
:101290000008024000040240704770B5044690F810
:1012A0003C0000260D4601280FD0012084F83C00A8
:1012B0006AB1042A1DD0082A2FD00C2A3FD001265B
:1012C000002084F83C00304670BD022070BD2068CC
:1012D00000F086FD2068816941F008018161206885
:1012E000816921F004018161206881692A691143C3
:1012F00011E0206800F09CFD2068816941F40061E4
:1013000081612068816921F480618161206881693F
:101310002A6941EA02218161D2E7206800F0B4FD28
:101320002068C16941F00801C1612068C16921F0EC
:101330000401C1612068C1692A69114311E0206874
:1013400000F0CEFD2068C16941F40061C1612068F0
:10135000C16921F48061C1612068C1692A6941EADB
:101360000221C161ACE710B5040003D094F83D0040
:1013700010B107E0012010BD002084F83C00204699
:1013800000F01EF8022084F83D00211D206800F0C6
:10139000CDFC012084F8460084F83E0084F83F002C
:1013A00084F8400084F8410084F8420084F8430047
:1013B00084F8440084F8450084F83D00002010BD06
:1013C00008B500680649884208D10648016841F01E
:1013D00002010160006800F00200009008BD0000FA
:1013E0000004004040380240704770470246002029
:1013F00041B1042909D008290AD00C2901D110686B
:10140000006C70471068406B70471068806B7047C5
:101410001068C06B7047704770477047F8B5016837
:1014200004460868CA684B6910F00F0F4FF00005BA
:1014300059D003F0010602F49077374365D0C10715
:1014400005D0D10503D5216C41F00101216441078C
:1014500005D5D90703D0216C41F002012164810731
:1014600005D5D90703D0216C41F00401216401079F
:1014700007D502F02001314303D0216C41F008016F
:101480002164216C00293AD0800604D5900602D54B
:10149000204600F0C7FD20684069216CC0F3801031
:1014A000090700D460B3204600F095FD206840692C
:1014B000400621D52068143050E8001F21F040017B
:1014C00040E80012002AF5D1A06BA8B16C49016573
:1014D000A06BFEF73CFF002811D0A06B016D01B09E
:1014E000BDE8F040084783060FD593060DD520468A
:1014F000BDE8F84000F096BD2046FFF78EFFF8BD2E
:101500002046FFF78AFF2564F8BD266B2023012EB5
:1015100079D1C60677D5D60675D508684868009093
:101520004869400640D5A16B086840680004000C7B
:10153000EAD0A28D8242E7D9E085C869B0F5807F04
:101540002DD020680C3050E8001F21F4807140E855
:101550000012002AF5D12068143050E8001F21F055
:10156000010140E80012002AF5D12068143050E84B
:10157000001F21F0400140E80012002AF5D184F854
:101580003E30256320680C3050E8001F21F0100128
:1015900040E80012002AF5D1A06BFEF78FFEA08D67
:1015A000E18D401A81B229E0A08DE18D401A81B20F
:1015B000E08D0028A8D00029A6D020680C3050E883
:1015C000002F22F4907240E80026002EF5D120680A
:1015D000143050E8002F22F0010240E80026002ECF
:1015E000F5D184F83E30256320680C3050E8002F98
:1015F00022F0100240E80023002BF5D12046FFF72F
:101600000BFFF8BDFFE705062BD5150629D594F885
:101610003D002128F5D1A068B0F5805F01D1206997
:10162000B0B1206A411C2162216800784860E08CDA
:10163000401E0004000CE084E3D12068C16821F062
:101640008001C1602068C16841F04001C160D8E7F5
:10165000206A0088C0F308004860206A801C20626D
:10166000E5E74006CDD55006CBD5CA68204622F026
:101670004002CA6084F83D3000F09CF8C1E70000E9
:10168000C71F000870B5040004D094F83D00002581
:1016900010B106E0012070BD84F83C50204600F0F7
:1016A00023F8242084F83D002068C16821F400510B
:1016B000C160204600F016FD2068016921F49041C8
:1016C00001612068416921F02A0141612068C168F7
:1016D00041F40051C1602564202084F83D0084F865
:1016E0003E00002070BD000010B586B004461421F5
:1016F0006846FEF7A3FD18492068884229D117489B
:101700000021026842F010020260006800F0100040
:10171000059012481438026842F001020260006825
:1017200000F0010005904FF4C06000900220CDE968
:101730000101032003900720049069460848FEF742
:1017400019FE002211462520FEF77CFF2520FEF71A
:101750006BFF06B010BD000000100140443802408D
:101760000000024090F83E30202B0ED159B152B10A
:1017700090F83C30012B08D0012380F83C30002346
:10178000036300F035BD0120704702207047000060
:101790000548064B416802785A54491C416001468D
:1017A00001220348FFF7DEBF10000020F0000020F8
:1017B000AC0000207047FEE7002100EB800001E054
:1017C00000BF491CB1EB400FFAD3704710B586B08B
:1017D00014216846FEF732FD302000901120019060
:1017E000012002900220064C039069462046FEF735
:1017F000C1FD012230212046FEF7B1FE06B010BD2A
:101800000008024020210148FEF7A4BE0008024063
:1018100070B505460024002000F01CF80520FFF7F5
:10182000CBFF05F0800000F021F86806050E0520CA
:10183000FFF7C2FF012000F00DF80520FFF7BCFF05
:10184000641CE4B2082CE6D3BDE87040002000F030
:1018500001B80000044B08B1012200E00022102171
:101860001846FEF77CBE000000080240044B08B199
:10187000012200E0002220211846FEF770BE000081
:101880000008024010B50120FFF7F0FF0120FFF72C
:10189000E1FF0520FFF790FF0020FFF7E7FF05209D
:1018A000FFF78AFF0020FFF7D5FFBDE810400520B5
:1018B000FFF782BF10B50020FFF7D8FF0120FFF728
:1018C000C9FF0520FFF778FF0120FFF7CFFFBDE834
:1018D00010400520FFF770BF10B564240120FFF70A
:1018E000C5FF0120FFF7B6FF0520FFF765FF03E006
:1018F000641E2404240C0AD0FFF784FF0028F7D1CB
:10190000FFF7A8FF0520FFF757FF002010BDFFF7E6
:10191000D1FF012010BD70B515460E460446FFF7F5
:10192000B1FF6006000EFFF773FFFFF7D5FF58B950
:101930003046FFF76DFFFFF7CFFF28B92846FFF7C6
:1019400067FFFFF7C9FF18B1FFF7B4FF012070BDB3
:10195000FFF7B0FF002070BD10B5FFF737FF002183
:101960006B2000F018F8A0B90721192000F013F837
:1019700078B906211A2000F00EF850B918211B2062
:1019800000F009F828B901211C2000F004F8002813
:1019900000D0012010BD0A4601466820FFF7BBBFFA
:1019A00030B587B014216846FEF748FC194800247A
:1019B000016841F080010160016801F0800105913A
:1019C000016841F004010160016801F00401059122
:1019D000016841F001010160016801F00101059118
:1019E000016841F00201016000680B4D00F0020047
:1019F0000590002230212846FEF7B1FD30200090EE
:101A00000120CDE90104694628460394FEF7B2FCA3
:101A100007B030BD303802400008024010B58AB02F
:101A2000002407941C2168460894FEF707FC22480E
:101A300020490160A721C0E9011442F20F71C0E9F9
:101A400003148461FFF78FFC08B1FEF735FC07949F
:101A500007A919480894FFF7DDF808B1FEF72CFC38
:101A60006020CDE9000402940022694612480494E3
:101A7000FFF713FC08B1FEF71FFC042269460E486D
:101A8000FFF70BFC08B1FEF717FC082269460A486D
:101A9000FFF703FC08B1FEF70FFC0C22694606486D
:101AA000FFF7FBFB08B1FEF707FC0348FFF7B6FBA7
:101AB0000AB010BD000400401C00002010B586B024
:101AC000002424480594049400940194029420492D
:101AD000039401605321C0E901144FF6FE71C0E97F
:101AE00003148461FFF701FA08B1FEF7E5FB0494E3
:101AF00004A918480594FFF78DF808B1FEF7DCFB40
:101B00000120CDE900400294002269461148039467
:101B1000FFF75CF908B1FEF7CFFB042269460D48D8
:101B2000FFF754F908B1FEF7C7FB082269460948D8
:101B3000FFF74CF908B1FEF7BFFB0C2269460548D8
:101B4000FFF744F9002801D0FEF7B6FB06B010BD40
:101B500000080040640000200C4810B50A490160EC
:101B60004FF416514160002181600C22C160C0E930
:101B700004128161C161FFF785FD002803D0BDE833
:101B80001040FEF799BB10BD00100140AC000020D2
:101B900002292FD001299FED1D1A32D09FED1C0A7A
:101BA000DFED1C0A01EE900AF8EE611AF4EEC01A9D
:101BB000F1EE10FA03D2FCEEC01A11EE900A01EE1B
:101BC000900AF8EE611AF4EEC11AF1EE10FA03DD94
:101BD000BCEEC11A11EE100A01EE100A0E48B8EE62
:101BE000411A00EB810031EE400A80EE201A80EDB0
:101BF000001A70479FED090A9FED091AF0EE400A9E
:101C0000D0E79FED080ADFED080ACBE700C0DA4411
:101C100000409C440000FA434001002000007A4448
:101C20000000FA440080BB4400007A43FEE7000055
:101C3000012202490248FFF795BD00001000002074
:101C4000AC000020FEE7704710B500210848FFF700
:101C5000B5F904210648FFF7B1F908210448FFF758
:101C6000ADF9BDE810400C210148FFF7A7B900000D
:101C7000640000207047FEF77DBC000030B593B0D3
:101C800030216846FEF7DAFA14210CA8FEF7D6FADE
:101C90001D480025016841F080510160006800F096
:101CA000805011901948016821F4404141F40041ED
:101CB00001600068022400F440401190012000906F
:101CC000000401908001CDE9064008AA04205421B7
:101CD00082E813000B906846FEF7D0FD08B172B69B
:101CE000FEE70CA90F2081E831004FF48050CDE9C8
:101CF0000F0502210CA8FEF7D7FC002801D072B610
:101D0000FEE713B030BD00004038024000700040D4
:101D10000248016841F470010160704788ED00E0FD
:101D20000148FFF7C7B9000064000020F0B5026861
:101D30001D4B1E4C9F031E4D1E4E984207D0B842AD
:101D400005D0A04203D0A84201D0B04204D122F075
:101D5000700C4A6842EA0C02984210D0B8420ED089
:101D6000A0420CD0A8420AD0B04208D0124CA042E7
:101D700005D0124CA04202D0114CA04203D122F453
:101D80004074CA6822434C6922F0800222430260F8
:101D90008A68C2620A688262984201D10969016355
:101DA00001214161F0BD000000000140000400403D
:101DB00000080040000C0040004001400044014089
:101DC0000048014010B501F01F030121046A994049
:101DD0008C430462016A9A401143016210BD000005
:101DE00030B5026A22F001020262026A4368846925
:101DF00024F073050C682C4322F002058A682A43FC
:101E00000A4DA8420BD122F00805CA6823F440739A
:101E10002A434D6922F004021D438B692B43436022
:101E2000846149684163026230BD000000000140E6
:101E300030B5026A22F010020262026A43688469C5
:101E40000D6824F4E64444EA05248D6822F020025B
:101E500042EA05120B4DA8420ED1CD6822F0800255
:101E600042EA05124D6923F4406343EA85038D6914
:101E700022F0400243EA850343608461496881633C
:101E8000026230BD0000014030B5026A22F4807267
:101E90000262036A4268C46923F4007324F0730584
:101EA0000C682C438D6843EA05230C4DA8420ED1E3
:101EB000CD6823F4006343EA05234D6922F44052C0
:101EC00042EA05128D6923F4806342EA05124260FA
:101ED000C4614968C163036230BD00000000014075
:101EE00030B5026A22F480520262046A4268C36911
:101EF0000D6823F4E64343EA05238D6824F4005477
:101F000044EA0534064DA84204D14D6922F48042CA
:101F100042EA85124260C36149680164046230BDCF
:101F20000000014070B5046A24F001040462846971
:101F3000056A124EB0420ED0B0F1804F0BD0104E59
:101F4000B04208D00F4EB04205D00F4EB04202D082
:101F50000E4EB04203D124F00304144301E044F0D8
:101F600001041A0724F0F00444EA126225F00A037F
:101F700001F00A0119438261016270BD0000014055
:101F80000004004000080040000C004000400140F8
:101F900030B5046A24F0100404628469056A24F4EC
:101FA000407444EA022222F470444FF6FF7202EABF
:101FB00003322243A02425F0A00304EA01111943AF
:101FC0008261016230BD10B5806B0021C185C18482
:101FD000FFF723FA10BD01680C3151E8002F22F4FD
:101FE000907241E80023002BF5D10168143151E8CB
:101FF000002F22F0010241E80023002BF5D1016BF4
:10200000012909D101680C3151E8002F22F010029A
:1020100041E80023002BF5D1202180F83E1000215B
:102020000163704708B590F83E10222901D00220C4
:1020300008BD82684FF480539A4201D1016921B1F1
:10204000816A9A421BD04AB10AE00268816A5268EA
:10205000C2F308020A80816A891C08E0026972B131
:102060000268526802F07F020A70816A491C81622C
:10207000C18D491E0904090CC18503D019E002680D
:102080005268F1E70168CA6822F02002CA6001685C
:10209000CA6822F48072CA6001684A6922F00102AB
:1020A0004A61202180F83E10016B012903D0FFF71F
:1020B0006FFB002008BD0021016301680C3151E86D
:1020C000002F22F0100241E80023002BF5D1016817
:1020D0000A68D20602D50A6849680091818DFFF727
:1020E0009BF9E6E770B5044600680169E26821F4EF
:1020F0004051114301612169A068E26908436169A7
:10210000114308432168CA6849F20C639A430243A9
:10211000CA6020684169A26921F44071114341619C
:1021200031492068884202D03049884202D1FEF706
:1021300065FB01E0FEF752FBE269002319216425EB
:102140003226B2F5004F626828D0A0FB0101930F40
:102150009200FEF73BF80146B0FBF5F06FF0180275
:10216000504301EB800006EB0010B0FBF5F000F0EF
:10217000F002B1FBF5F002EB0012B1FBF5F06FF0ED
:102180001803584301EB800006EB0010B0FBF5F09C
:1021900000F00F0021681044886070BDA0FB0101B1
:1021A00092185B41FEF712F80146B0FBF5F0020110
:1021B000B1FBF5F06FF01803584301EB800006EB1C
:1021C000C000B0FBF5F000F0F80002EB4002B1FBFC
:1021D000F5F0584301EB800006EBC000B0FBF5F0D2
:1021E00000F00700D6E70000001001400014014095
:1021F00081628285C28500210164222280F83E200E
:1022000080F83C10016921B10168CA6842F480720B
:10221000CA6001684A6942F001024A610068C16807
:1022200041F02001C1600020704700000148FFF725
:10223000F5B80000AC000020FEE70907090E0028F1
:1022400004DB00F1E02080F80014704700F00F007C
:1022500000F1E02080F8141D704702E008C8121F4A
:1022600008C1002AFAD170477047002001E001C17F
:10227000121F002AFBD17047FEF784F9FFF7FEFC1E
:10228000FFF78EFBFFF768FCFFF7C8FBFFF716FCB4
:10229000FFF7CEFCFFF760FBFFF7D6FCFEE7000080
:1022A0000000000000000102030406070809000006
:1022B0000000010203040000D822000800000020F2
:1022C0001C0000005A220008F42200081C00002014
:1022D000340500006A220008010000001000000020
:1022E000000000000024F4000000000000000000D6
:0422F00001000000E9
:040000050800019559
:00000001FF
