:020000040800F2
:1000000098040020A9010008E11F0008511700080A
:10001000C91F0008A50900081D24000800000000F1
:10002000000000000000000000000000E51F0008C4
:10003000A709000800000000E31F0008892000084D
:10004000C3010008C3010008C3010008C301000880
:10005000C3010008C3010008C3010008C301000870
:10006000C3010008C3010008C3010008C301000860
:10007000C3010008C3010008C3010008C301000850
:10008000C3010008C3010008C3010008000000000C
:10009000000000000000000000000000C301000894
:1000A000C3010008C3010008C3010008C301000820
:1000B000C3010008C3010008C3010008C301000810
:1000C000C3010008C3010008C3010008C301000800
:1000D000C301000811240008C3010008000000004B
:1000E000C3010008C3010008C301000800000000AC
:1000F000000000000000000000000000C301000834
:1001000000000000C3010008C3010008C30100088B
:1001100000000000000000000000000000000000DF
:10012000C3010008C3010008C3010008C30100089F
:10013000C3010008000000000000000000000000F3
:10014000000000000000000000000000C3010008E3
:10015000C3010008C3010008C3010008C30100086F
:10016000C3010008C30100080000000000000000F7
:10017000000000000000000000000000000000007F
:1001800000000000C30100080000000000000000A3
:10019000C3010008DFF80CD000F030FB0048004736
:1001A000553100089804002006488047064800475B
:1001B000FEE7FEE7FEE7FEE7FEE7FEE7FEE7FEE717
:1001C000FEE7FEE721210008950100082DE9F05F18
:1001D0000546002092469B468846064681464024B6
:1001E0001BE0284641464746224600F038FA53466F
:1001F0005A46C01A914110D311461846224600F0C3
:100200001FFA2D1A67EB01084F46224601200021F4
:1002100000F016FA17EB00094E41201EA4F101046C
:10022000DFDC484631462A464346BDE8F09FD2B25D
:1002300001E000F8012B491EFBD270470022F6E7CF
:1002400010B513460A4604461946FFF7F0FF20464C
:1002500010BD2DE9FE4F804681EA0300C00F0C4619
:10026000009021F0004123F00045B8EB0200A941C5
:1002700005D24046214690461C460B46024623F0D6
:100280000040104347D0270DC7F30A00C3F30A51BB
:100290000290401A019040286BDAC3F3130040F437
:1002A000801B0098924620B10023D2EB030A63EB37
:1002B0000B0B01985946C0F14002504600F0C0F9BE
:1002C00006460D4650465946019A00F0D8F910EB03
:1002D00008006141002487EA115284EAE7731A4357
:1002E00040D0009A62B3019A012A4FEA075215DC06
:1002F000001B61EB02014FF0004202EA0752CDE918
:100300000042001C41F5801132462B4600F00FFAE6
:1003100003B0BDE8F08F40462146F9E7001B61EBD2
:100320000201001C41F5801300185B412018A2F562
:10033000001747EB030140EAD570B6196D4111E093
:100340006D084FEA360645EAC0754FEA0752001BB2
:1003500061EB0201001C41F5801149084FEA3000B1
:100360000019514132462B4603B0BDE8F04F00F072
:10037000CFB90098012240000023D0EB020263EBCA
:10038000E073009821464FEAE074B8EB000061EB9F
:100390000401E9E783F000435BE781F0004158E79F
:1003A0002DE9FE4F81EA030404F0004421F00041EE
:1003B00000944FF0000B23F0004350EA01045ED09C
:1003C00052EA03045BD0C3F30A54C1F30A552C4428
:1003D000A4F2F3340194A0FB0254C1F3130141F4DD
:1003E0008011C3F3130343F4801301FB024400FBA9
:1003F000034E840A970A44EA815447EA8357A4FBD0
:10040000076802958D0A05FB07854FEA932C04FBCC
:100410000C542705029D4FEA065847EA1637B5EBFC
:1004200008056EEB070C870E920E47EA811742EA29
:100430008312A7FB0201B6EB0B0164EB00042B0D4A
:1004400043EA0C335E1844EB1C50DA465146E7FB96
:100450000201C5F313044FEA0B3343EA14534FEA86
:100460000432019C43EA0603A4F10C040294009CAC
:10047000CDE900B400F05BF903B0BDE8F08F0020D7
:100480000146F9E72DE9F04D81EA030404F0004B41
:1004900021F0004514464FF0000A23F0004150EAD5
:1004A000050220D054EA01021DD0C5F30A570246C6
:1004B000C5F31303C1F31300C1F30A5640F48015CA
:1004C00043F48013A7EB0608101BD64608F2FD384C
:1004D00073EB050002D308F1010801E092185B41BB
:1004E000B8F1000F03DA00200146BDE8F08D0020CE
:1004F0004FF48011064684460EE0171B73EB050788
:1005000005D3121B63EB050306434CEA010C4908B3
:100510004FEA300092185B4150EA0107EDD152EAF0
:10052000030012D082EA040083EA0501084305D0E3
:10053000101BAB4106D20122002306E000224FF03F
:10054000004302E06FF0010253101AEB06004CEB7F
:10055000085110EB0A0041EB0B01BDE8F04D00F033
:10056000D7B80EB5C10F80EAE0700844CA07002171
:1005700040F233438DE80E000A460B4600F0D7F8F0
:1005800003B000BD00F0004230F000400AD0C10DC1
:1005900001F56071C0F3160042EA0151C20840073C
:1005A00011437047002001467047000030B5041E1B
:1005B00071F1000404DB4FF00044404264EB0101A0
:1005C000141E73F1000405DB1C464FF00043524239
:1005D00063EB0403994208BF904230BD01F0004331
:1005E00030B421F0004150EA010206D00A0DA2F514
:1005F0006072C1F31301002A02DC30BC0020704796
:10060000440F44EAC104C100E01830BC00EBC25002
:1006100000F047B830B50B460146002020220124E7
:1006200009E021FA02F59D4205D303FA02F5491BC0
:1006300004FA02F52844151EA2F10102F1DC30BDD6
:10064000202A04DB203A00FA02F100207047914092
:10065000C2F1200320FA03F3194390407047202A87
:1006600004DB203A21FA02F00021704721FA02F35C
:10067000D040C2F120029140084319467047202A19
:1006800006DBCB17203A41FA02F043EAE07306E0BA
:1006900041FA02F3D040C2F12002914008431946CA
:1006A00070470029A8BF7047401C490008BF20F0D0
:1006B0000100704710B4B0FA80FC00FA0CF050EA68
:1006C000010404BF10BC704749B1CCF1200421FAE9
:1006D00004F411FA0CF118BF012121430843A3EBE4
:1006E0000C01CB1D4FEA00614FEA102042BF0020F1
:1006F00010BC704700EBC35010440029A4BF10BCCD
:100700007047401C490008BF20F0010010BC704732
:1007100010B5141E73F1000408DA401C41F1000109
:1007200092185B411A4301D120F0010010BD2DE960
:10073000F04D92469B4611B1B1FA81F202E0B0FA57
:1007400080F220329046FFF77BFF04460F4640EAD6
:100750000A0041EA0B0153465A46084313D011469A
:1007600053EA010019D0C8F140025046FFF777FF65
:1007700005460E46504659464246FFF761FF08437C
:1007800005D0012004E020463946BDE8F08D002068
:10079000054346EAE0762C4337430A986305E40AAA
:1007A000A0EB08000022FD0A44EA47540A3002D5B3
:1007B00000200146E9E7010510196941DDE9084516
:1007C00000196941BDE8F04DA2E7C1F30A52C1F337
:1007D000130140F2FF3341F480119A4202DA002003
:1007E0000146704740F233439A42A2F2334202DCA0
:1007F0005242FFF734BFFFF723BF0000064C074DFE
:1008000006E0E06840F0010394E8070098471034E0
:10081000AC42F6D3FFF7C2FC243200084432000891
:100820002DE9F05F454D464C464F474E9B462DED1A
:10083000048BB7EE008AF0EE008A95ED000AD5ED44
:10084000000A94ED001AD6ED001A20EE200AD4ED2D
:10085000000A9146884600EE810AF0EE480A95EDBE
:10086000001A824640EE680A97ED000A20EE010A5F
:1008700094ED001A01EE210A20EE280A01F09AFEFA
:100880009FED329A20EE090A8AED000A97ED000AE0
:10089000D4ED000A95ED001A20EE200AD6ED000AEC
:1008A00000EEC10A20EE280A01F0EEFD20EE090A52
:1008B00088ED000A94ED000AD4ED000A96ED001AC6
:1008C000D4ED001A20EE200AD6ED000A00EE810ACF
:1008D000F0EE480A96ED001A40EE680A97ED000A1D
:1008E00020EE010A95ED001A01EE210A20EE280AF9
:1008F00001F060FE20EE099A5846FFF732FE9FEDA8
:10090000141B53EC112BFFF74BFD9FED131B53EC06
:10091000112BFFF79EFC41EC180B19EE100AFFF7A4
:1009200031FE53EC182BFFF735FDFFF757FEC9F8E2
:100930000000BDEC048BBDE8F09F0000200000200B
:10094000240000201C00002028000020E62E654224
:10095000A9A0A2EA573A2FBF71B567F92E6372BFFB
:100960000948B7EE000AC0ED000A084880ED000A09
:1009700008489FED070A80ED000A074880ED000A4D
:10098000064880ED000A7047180000201C00002077
:10099000000000002000002024000020280000208B
:1009A00001F0C0B9FEE7704772B6FEE72DE9F041ED
:1009B0000446876D00F050F9064694F8350000258E
:1009C000022806D08020606584F834500120BDE8FC
:1009D000F0812068016821F01601016020684169FA
:1009E00021F080014161206C08B9A06C20B1206821
:1009F000016821F0080101602068016821F001010F
:100A000001600CE000F028F9801B052807D92020A0
:100A10006065032084F8350084F83450D7E72068F7
:100A20000068C007EED194F85C103F208840B860A1
:100A3000012084F8350084F834500020C7E790F88E
:100A40003510022903D0802141650120704705211E
:100A500080F835100068016821F001010160002074
:100A6000704700002DE9F84FDFF8B8A100220124FB
:100A700003254FF00F090AF1040BAAF1040E00BF81
:100A80000B6804FA02F63340B34273D10F7907F0D2
:100A90000307012F01D0022F16D187684FEA4208C1
:100AA00005FA08FC27EA0C07D1F80CC00CFA08FC80
:100AB0004CEA070CC0F808C04768B7430E79C6F384
:100AC000001696403E4346600E79F643B6070DD0B9
:100AD000C768560005FA06FC27EA0C07D1F808C0DB
:100AE0000CFA06FC4CEA070CC0F80CC00E7906F0B4
:100AF0000306022E10D1D60800EB8608D8F8206035
:100B000057074FEAD76C09FA0CF7BE430F6907FA8B
:100B10000CF73743C8F8207006684FEA420C05FA14
:100B20000CF7BE430F7907F0030707FA0CF73743BA
:100B300007604E6816F4403F6DD03B4E376847F46F
:100B400080473760366822F0030706F48046009637
:100B5000364E07EB060CDCF8086897073F0F09FADA
:100B600007F826EA0806DFF8C880404503D14FF0B1
:100B700000081EE04FE0DFF8BC80404502D14FF096
:100B8000010816E0DFF8B080404502D14FF00208BE
:100B90000FE0DFF8A880404502D14FF0030808E0DD
:100BA000DFF89C80404502D14FF0040801E04FF08F
:100BB000070808FA07F848EA0608CCF80888DAF8BF
:100BC00000605746D1F804C09E435FEACC2C00D5A4
:100BD0001E433E60DBF800605F46D1F804C09E43D0
:100BE0005FEA8C2C00D51E433E60DEF8006077463D
:100BF000D1F804C09E435FEA8C3C00D51E433E60A2
:100C0000084F083F3E68D1F804C09E435FEACC3CE1
:100C100000D51E433E60521C102AFFF431AFBDE8E0
:100C2000F88F0000083C0140443802400030014089
:100C3000000002400004024000080240000C024094
:100C4000001002400069084000D0012070470AB13E
:100C5000816170470904FBE7014880687047000024
:100C600000000020024881680278114481607047CA
:100C7000000000200B4810B5016841F400710160CC
:100C8000016841F480610160016841F48071016094
:100C9000032000F06FF80F2000F006F800F024F8B1
:100CA000002010BD003C024070B50D4D04464FF4CD
:100CB0007A712878B1FBF0F00A490968B1FBF0F0CD
:100CC00000F00AFB48B9102C07D200222146501E22
:100CD00000F030F800206C6070BD012070BD000095
:100CE000000000200C0000200A4808B5016841F40B
:100CF00080410160006800F4804000900548001FBA
:100D0000016841F080510160006800F0805000905F
:100D100008BD000044380240002809DB00F01F0233
:100D2000012191404009800000F1E020C0F800114D
:100D300070470000F0B40E4B1B680C46C3F302234F
:100D4000C3F10705042D00D90425191D072901D277
:100D5000002300E0DB1E012606FA05F1491E2140B2
:100D600099409E40761E16403143F0BC01F07BBB9B
:100D70000CED00E0064900F0070208684FF6FF039B
:100D8000184040EA0220034A104308607047000000
:100D90000CED00E00000FA052DE9F0470E460500D5
:100DA00065D0DFF81481D8F80000F7B200F0070032
:100DB000B04207D288F80070D8F8000000F00700B1
:100DC000B04254D128683D4C810712D5400703D565
:100DD000206840F4E05020602878000703D52068A0
:100DE00040F4604020602068A96820F0F0000843CB
:100DF00020602878C0072DD030496868083901285C
:100E000012D0022813D0032811D0096889070029BD
:100E10002DDA216821F0030101432160FFF71CFF57
:100E2000814641F2883A0EE009688903EFE70968D4
:100E30008901ECE7FFF710FFA0EB0901514502D94A
:100E40000320BDE8F0872068696800F00C00B0EB73
:100E5000810FEFD1D8F80010404601F00701B142F0
:100E600007D90770006800F00700B04201D00120E8
:100E7000E7E72878400705D52068E96820F4E050C6
:100E8000084320602878000706D52068296920F4E7
:100E9000604040EAC100206000F038F82168084A4C
:100EA000C1F30311515CC840064908600648006858
:100EB000FFF7FAFE0020C4E7003C02400838024079
:100EC0000A3200080C0000200400002004480549F4
:100ED00000680968044AC1F38221515CC840704728
:100EE0000C000020083802401A3200080448054966
:100EF00000680968044AC1F34231515CC840704738
:100F00000C000020083802401A320008154810B5BD
:100F1000006810F00C02144813D04110042A0FD0BE
:100F2000082A0ED10F4C241F2268236802F03F02CA
:100F30005B0207D52068C0F38810A0FB010106E022
:100F4000084610BD2168C1F38811A1FB00010023F0
:100F5000FFF73CF92168C1F30141491C4900B0FB8E
:100F6000F1F010BD083802400024F4002DE9F84FDC
:100F700004006ED02078DFF84C93C007A9F1040577
:100F80004AD009F104000168C1F38101012908D0A8
:100F90000068C0F3810002280AD1D9F8000040029D
:100FA00006D52868800337D560680028E1D033E093
:100FB0006068B0F5803F10D0B0F5A02F286810D041
:100FC00020F480302860286820F480202860606841
:100FD000A8B1FFF741FE06460DE0286840F48030D6
:100FE000F4E740F480202860F7E700BFFFF734FE05
:100FF000801B642873D828688003F7D50CE0FFF7BE
:101000002BFE064605E000BFFFF726FE801B642886
:10101000F0D828688003F7D42078DFF8AC82800706
:101020004FF0000A3ED5A748001D016811F00C0FD3
:1010300008D00068C0F3810002280BD1D9F8000065
:10104000400207D42868800716D5E068012800D13F
:1010500012E033E1E068B8B10120C8F80000FFF702
:10106000FBFD064605E000BFFFF7F6FD801B0228EA
:10107000C0D828688007F7D52868216920F0F800D3
:1010800040EAC10028600DE0C8F800A0FFF7E4FDC9
:10109000064604E0FFF7E0FD801B02281FD8286801
:1010A0008007F7D42078000722D5864F87486169EA
:1010B000703771B101210160FFF7CEFD064604E0F3
:1010C000FFF7CAFD801B022809D838688007F7D5CA
:1010D0000EE0C0F800A0FFF7BFFD064605E082E085
:1010E000FFF7BAFD801B02287DD838688007F7D447
:1010F0002078400768D5DFF8CCB100270BF13C0B16
:10110000DBF80000C0000BD4DBF8001041F0805188
:10111000CBF80010DBF80000012700F080500090B1
:101120006B4E3068C00510D4306840F48070306079
:10113000FFF792FD009005E0FFF78EFD0099401A41
:10114000022850D83068C005F6D55E4EA0686C36CF
:1011500001280FD00528306810D020F00100306041
:10116000306820F004003060A068B8B1FFF774FD6B
:1011700000900FE0306840F00100F4E740F0040018
:101180003060F7E7FFF768FD0099411A41F28830B7
:10119000814266D830688007F4D50EE0FFF75CFD29
:1011A000009007E0FFF758FD0099411A41F288309E
:1011B000814256D830688007F4D42FB1DBF8001094
:1011C00021F08051CBF80010A069C8B33D49091D3A
:1011D0000968C1F3810102294AD00228504607D08C
:1011E000C8F8600000E03CE0FFF736FD04463BE055
:1011F0004746C8F86000FFF72FFD064605E000BF30
:10120000FFF72AFD801B02282BD828688001F7D41D
:10121000D4E907010843A16A2E4A490802EB0141BB
:10122000626A41EA8211084394F82C1040EA016195
:10123000C9F8001001203866FFF70EFD044606E0ED
:101240003EE000BFFFF708FD001B022809D8286810
:101250008001F7D534E000BFFFF7FEFC001B022839
:1012600002D90320BDE8F88F28688001F4D427E074
:101270000128F7D0D9F80000E26900F4800191421A
:101280001CD1226A00F03F01914217D147F6C0718C
:10129000626A0140B1EB821F10D1A26A4FF0FF33A6
:1012A00000F4403103EB5202B1EB024F06D194F847
:1012B0002C1000F07060B0EB016F01D00120D1E77D
:1012C0000020CFE70438024000004742800E47422A
:1012D000007000400000FFFF10B5401EB0F1807F9D
:1012E00001D3012010BD4FF0E02460610F21601791
:1012F00001F0B9F80020A06107202061002010BD96
:1013000070477047F8B5016804460868CA684B69B9
:1013100010F00F0F4FF0000559D003F0010602F452
:101320009077374365D0C10705D0D10503D5216C2F
:1013300041F001012164410705D5D90703D0216C93
:1013400041F002012164810705D5D90703D0216C42
:1013500041F004012164010707D502F02001314367
:1013600003D0216C41F008012164216C00293AD09E
:10137000800604D5900602D5204600F008FF2068BC
:101380004069216CC0F38010090700D460B3204687
:1013900000F0D6FE20684069400621D52068143050
:1013A00050E8001F21F0400140E80012002AF5D16A
:1013B000A06BA8B16C490165A06BFFF740FB00284A
:1013C00011D0A06B016D01B0BDE8F0400847830665
:1013D0000FD593060DD52046BDE8F84000F0D7BEE6
:1013E0002046FFF78EFFF8BD2046FFF78AFF2564F1
:1013F000F8BD266B2023012E79D1C60677D5D606F7
:1014000075D50868486800904869400640D5A16BCA
:10141000086840680004000CEAD0A28D8242E7D937
:10142000E085C869B0F5807F2DD020680C3050E889
:10143000001F21F4807140E80012002AF5D12068D5
:10144000143050E8001F21F0010140E80012002A8A
:10145000F5D12068143050E8001F21F0400140E829
:101460000012002AF5D184F83E30256320680C3044
:1014700050E8001F21F0100140E80012002AF5D1C9
:10148000A06BFFF793FAA08DE18D401A81B229E09D
:10149000A08DE18D401A81B2E08D0028A8D00029EE
:1014A000A6D020680C3050E8002F22F4907240E85B
:1014B0000026002EF5D12068143050E8002F22F0CD
:1014C000010240E80026002EF5D184F83E30256365
:1014D00020680C3050E8002F22F0100240E8002372
:1014E000002BF5D12046FFF70BFFF8BDFFE70506FF
:1014F0002BD5150629D594F83D002128F5D1A068F3
:10150000B0F5805F01D12069B0B1206A411C216231
:10151000216800784860E08C401E0004000CE084E4
:10152000E3D12068C16821F08001C1602068C168F2
:1015300041F04001C160D8E7206A0088C0F308008C
:101540004860206A801C2062E5E74006CDD5500641
:10155000CBD5CA68204622F04002CA6084F83D30EC
:1015600000F0F5F8C1E700003121000870B5040073
:1015700004D094F83D00002510B106E0012070BDB4
:1015800084F83C50204600F023F8242084F83D00E5
:101590002068C16821F40051C160204600F058FE67
:1015A0002068016921F4904101612068416921F0BE
:1015B0002A0141612068C16841F40051C16025647D
:1015C000202084F83D0084F83E00002070BD00001B
:1015D00010B586B0044614216846FEF72FFE184960
:1015E0002068884229D117480021026842F0100281
:1015F0000260006800F0100005901248143802687C
:1016000042F001020260006800F0010005904FF412
:10161000C06000900220CDE9010103200390072063
:10162000049069460848FFF71DFA0022114625205C
:10163000FFF780FB2520FFF76FFB06B010BD000011
:1016400000100140443802400000024090F83E3053
:10165000202B0ED159B152B190F83C30012B08D05B
:10166000012380F83C300023036300F077BE0120A3
:1016700070470220704700000548064B4168027819
:101680005A54491C4160014601220348FFF7DEBF5E
:101690001000002078000020340000202DE9F843DD
:1016A000044690F83D001F4616460D4620284CD1B2
:1016B000C5B1BEB194F83C00012846D0012084F8A1
:1016C0003C004FF00008C4F84080212084F83D0021
:1016D000FFF7C2FAA6848146E684A068B0F5805F71
:1016E00003D004E00120BDE8F883206928B12E462C
:1016F0005FF0000584F83C800EE00026FAE78021C8
:10170000204600F048FEA0B9AEB116F8010B2168E2
:101710004860E08C401EE084E08C4B464FF00002B5
:1017200000970028EBD14FF04001204600F033FE37
:1017300030B10320D7E735F8020BC0F30800E6E725
:10174000202084F83D000020CDE70220CBE7704741
:10175000FEE7002100EB800001E000BF491CB1EB77
:10176000400FFAD37047000010B586B014216846C8
:10177000FEF764FD302000901120019001200290BE
:101780000220064C039069462046FFF76BF90122C0
:1017900030212046FFF75BFA06B010BD000802407A
:1017A00020210148FFF74EBA0008024070B500241E
:1017B000012000F075F800256006040E002000F0FE
:1017C00063F80520FFF7C5FF012000F05DF8052054
:1017D000FFF7BFFFFFF7E4FF08B144F001046D1C01
:1017E000EDB2082DE8D3002000F04EF8204670BD81
:1017F00010B5002000F054F80520FFF7AAFF0120E3
:1018000000F042F80520FFF7A4FF002000F03CF8AC
:10181000BDE810400520FFF79CBF70B505460024C9
:10182000002000F031F80520FFF793FF05F080005D
:1018300000F036F86806050E0520FFF78AFF012044
:1018400000F022F80520FFF784FF641CE4B2082CA6
:10185000E6D3BDE87040002000F016B810B50120B6
:1018600000F01EF80520FFF774FF012000F00CF8CF
:101870000520FFF76EFF002000F006F8BDE81040DD
:101880000520FFF766BF0000044B08B1012200E00D
:10189000002210211846FFF7DAB9000000080240C4
:1018A000044B08B1012200E0002220211846FFF776
:1018B000CEB900000008024010B50120FFF7F0FF8C
:1018C0000120FFF7E1FF0520FFF743FF0020FFF7AE
:1018D000E7FF0520FFF73DFF0020FFF7D5FFBDE83C
:1018E00010400520FFF735BF10B50020FFF7D8FFE7
:1018F0000120FFF7C9FF0520FFF72BFF0120FFF7AD
:10190000CFFFBDE810400520FFF723BF10B56424CA
:101910000120FFF7C5FF0120FFF7B6FF0520FFF705
:1019200018FF03E0641E2404240C0AD0FFF738FFDC
:101930000028F7D1FFF7A8FF0520FFF70AFF0020D6
:1019400010BDFFF7D1FF012010BD70B515460E4642
:101950000446FFF7B1FF6006000EFFF75EFFFFF7DA
:10196000D5FF58B93046FFF758FFFFF7CFFF28B92A
:101970002846FFF752FFFFF7C9FF18B1FFF7B4FF82
:10198000012070BDFFF7B0FF002070BD7CB514468C
:101990000D460646062269463B2000F035F9BDF8A3
:1019A0000000BDF8042040BA01B200EE101ABDF8E4
:1019B000020052BAF8EEC00AB1EE000A40BA00B214
:1019C00020EE801ADFED280A12B221EE201A86EDF1
:1019D000001A01EE100AB8EEC11A21EE001A21EE2B
:1019E000201A85ED001A01EE102AB8EEC11A21EE78
:1019F000000A20EE200A84ED000A3068FEF7C2FDDE
:101A00009FED1A1B53EC112BFEF7C4FC9FED191B25
:101A100053EC112BFEF7C4FCFEF7E0FD30602868A4
:101A2000FEF7B0FD9FED151B53EC112BFEF7B2FC3A
:101A30009FED141B53EC112BFEF7B2FCFEF7CEFD0D
:101A400028602068FEF79EFD9FED101B53EC112BC4
:101A5000FEF7A0FC9FED0F1B53EC112BFEF7A0FC33
:101A6000FEF7BCFD20607CBD000080370F0D8B5160
:101A7000D7DAA33F98A432C51C04F03F16C0948166
:101A8000035A8ABF4B92E7FA3E1CF03F0A4B3CA038
:101A90006C4AE03F98141F9F909DEF3F2DE9F04165
:101AA00014462DED048B82B00D460646062269468B
:101AB000432000F0A9F8BDF800009FED398A40BA34
:101AC00000B200EE100ABDF80210DFED368AB8EE63
:101AD000C00A49BA0FFA81F8BDF8041020EE080ACE
:101AE00049BA0FB220EE280A10EE100AFEF74AFD9E
:101AF0009FED2D9B53EC192BFEF752FCFEF76EFD6C
:101B000000EE108A3060B8EEC00A20EE080A20EE1F
:101B1000280A10EE100AFEF735FD53EC192BFEF7DC
:101B20003FFCFEF75BFD00EE107A2860B8EEC00ABD
:101B300020EE080A20EE280A10EE100AFEF722FD19
:101B400053EC192BFEF72CFCFEF748FD20603068A3
:101B5000FEF718FD9FED161B53EC112BFEF71AFC38
:101B6000FEF73CFD30602868FEF70CFD9FED121B70
:101B700053EC112BFEF70EFCFEF730FD28602068B9
:101B8000FEF700FD9FED0E1B53EC112BFEF702FC40
:101B9000FEF724FD206002B0BDEC048BBDE8F081AF
:101BA00000007A4500008037399D52A246DF913F00
:101BB0009A9999999999A9BF7B14AE47E17A84BF04
:101BC000B81E85EB51B89E3F10B5FFF7CDFD002143
:101BD0006B2000F04FF8A0B90721192000F04AF857
:101BE00078B906211A2000F045F850B918211B20B9
:101BF00000F040F828B901211C2000F03BF8002833
:101C000000D0012010BD00002DE9F04115460E4620
:101C10000446FFF751FED020FFF7FFFDFFF776FEE9
:101C200068B92046FFF7F9FDFFF770FE38B9FFF7F6
:101C300043FED120FFF7F1FDFFF768FE20B1FFF76B
:101C400053FE0120BDE8F08100246F1E0CE000BFB0
:101C5000FFF7ACFD3055BC4202D1FFF7FFFD01E0BC
:101C6000FFF7C6FD641CA4B2AC42F1D3FFF73CFE03
:101C70000020E7E70A4601466820FFF766BE00003D
:101C800030B587B014216846FEF7D8FA154800240D
:101C9000016841F080010160016801F08001059157
:101CA000016841F004010160016801F0040105913F
:101CB000016841F00101016000680B4D00F0010076
:101CC0000590002230212846FEF7C1FF3020009009
:101CD0000120CDE90104694628460394FEF7C2FEBF
:101CE00007B030BD30380240000802400C4810B543
:101CF0000A4901604FF416514160002181600C22B5
:101D0000C160C0E904128161C161FFF72FFC0028A6
:101D100003D0BDE81040FEF747BE10BD00100140E3
:101D20003400002000B5A64AF5EEC01A2DED088B50
:101D300092ED023AD2ED033A92ED034A20EE433A95
:101D400003EEE03AD2ED043A03EEC13AF6EE003A81
:101D500023EE235A92ED013A23EE003A04EE013AC3
:101D600092ED044A04EE603A92ED024A63EE234A91
:101D700092ED013A23EE203A04EE413A92ED044A04
:101D800004EE003A23EE234A92ED013A23EE011AC3
:101D900092ED023A03EE201AD2ED030A00EEC01AC9
:101DA00061EE235AF1EE10FA09D1B5EEC02AF1EE38
:101DB00010FA04D1F5EEC02AF1EE10FA7ED021EE31
:101DC000A10A02EE020A02EEA20A01F0ADF921EE2A
:101DD000801A62EE000A62EE807AD2ED011AB0EE4D
:101DE000000AD2ED022A21EE809AD2ED021A92ED7B
:101DF000023AD2ED033A61EE806AD2ED031A92ED17
:101E000004AA21EE807AD2ED041A61EE808AD2ED26
:101E1000011AB1EE000A61EE809AD2ED021A21EEAB
:101E2000802AD2ED031A21EE806AF2EE001A62EEE9
:101E3000A1AAD2ED032A22EEA18AD2ED011AD2ED97
:101E4000012A61EEA21AD2ED022A62EE832A92EDF5
:101E5000033A63EE233A92ED043A23EE0AAA29EEFE
:101E6000A33A22EE0ABA07EE013A08EEC1BA09EE29
:101E7000A23A61EE809AD2ED021A09EEA1BA06EEFC
:101E8000E03A09EE60BA7BEE421A4AEEA21A4AEE36
:101E9000A31A42EE271A92ED032A29EE822A09EEAE
:101EA000012A06EE0A2A08EEE02A32EE462A08EE59
:101EB000222A08EE232A06EE272A00E031E062EE0D
:101EC000802A92ED046A23EE800A62EE862A46EEAC
:101ED000C12A92ED041A40EE012A23EE030A01EE14
:101EE000A10A47EE602A02EE020A02EEA20A01F0FF
:101EF0001BF961EE800A23EE001A62EE001A92EDE1
:101F0000002A22EE800A02EE415A92ED001A41EEBA
:101F1000604AD2ED000A00EEE14AD2ED000A40EE3E
:101F2000C05AD2ED010A9FED270A45EE000AC2ED24
:101F3000010AD2ED020A44EE800AC2ED020AD2ED95
:101F4000030A44EE000AC2ED030AD2ED040A45EE8C
:101F5000800AC2ED040A92ED010AD2ED010A92ED67
:101F6000021A20EE200AD2ED020A00EE810AD2ED1A
:101F7000030A92ED031A00EE810AD2ED040A92EDF3
:101F8000041A00EE810A01F0CFF8D2ED010A60EEEA
:101F9000800AC2ED010AD2ED020A60EE800AC2EDAB
:101FA000020AD2ED030A60EE800AC2ED030AD2ED06
:101FB000040A20EE800A82ED040ABDEC088B00BD05
:101FC000180000200000003BFEE70000012202494B
:101FD0000248FFF73BBB0000100000203400002047
:101FE000FEE77047704700007FB5F0EE001AAA23A5
:101FF00020EE210A8DF80030FF238DF80130BDEE70
:10200000C00A03238DF8023010EE102A20EEA10A38
:102010000723140A8DF80440BDEEC00A8DF8052090
:102020008DF8033010EE101A21EE210A6D460A0ACF
:102030008DF80620BDEEC00A8DF8071010EE100ACC
:10204000010A8DF808108DF8090001208DF80A00AA
:102050000020014602461B1D05E0AC5C521C2044DA
:1020600040B2014449B29342F7DC8DF80B008DF881
:102070000C10002403A0295D00F0D2F9641C0D2C83
:10208000F8DB7FBD25630000FEF7ECBD30B593B0F3
:1020900030216846FEF7D2F814210CA8FEF7CEF8DE
:1020A0001D480025016841F080510160006800F082
:1020B000805011901948016821F4404141F40041D9
:1020C00001600068022400F440401190012000905B
:1020D000000401908001CDE9064008AA04205421A3
:1020E00082E813000B906846FEF740FF08B172B615
:1020F000FEE70CA90F2081E831004FF48050CDE9B4
:102100000F0502210CA8FEF747FE002801D072B689
:10211000FEE713B030BD00004038024000700040C0
:102120000248016841F470010160704788ED00E0E9
:1021300010B5806B0021C185C184FFF7E2F810BDA6
:1021400001680C3151E8002F22F4907241E800231D
:10215000002BF5D10168143151E8002F22F0010263
:1021600041E80023002BF5D1016B012909D1016859
:102170000C3151E8002F22F0100241E80023002B1F
:10218000F5D1202180F83E1000210163704708B589
:1021900090F83E10222901D0022008BD82684FF439
:1021A00080539A4201D1016921B1816A9A421BD0C0
:1021B0004AB10AE00268816A5268C2F308020A80E2
:1021C000816A891C08E0026972B10268526802F0F3
:1021D0007F020A70816A491C8162C18D491E09040F
:1021E000090CC18503D019E002685268F1E7016863
:1021F000CA6822F02002CA600168CA6822F48072AC
:10220000CA6001684A6922F001024A61202180F80F
:102210003E10016B012903D0FFF72EFA002008BD04
:102220000021016301680C3151E8002F22F01002F7
:1022300041E80023002BF5D101680A68D20602D5D7
:102240000A6849680091818DFFF75AF8E6E70000B7
:1022500070B5044600680169E26821F440511143F9
:1022600001612169A068E26908436169114308437B
:102270002168CA6849F20C639A430243CA60206825
:102280004169A26921F440711143416131492068DB
:10229000884202D03049884202D1FEF727FE01E091
:1022A000FEF714FEE2690023192164253226B2F5F7
:1022B000004F626828D0A0FB0101930F9200FDF748
:1022C00085FF0146B0FBF5F06FF01802504301EBBB
:1022D000800006EB0010B0FBF5F000F0F002B1FB5F
:1022E000F5F002EB0012B1FBF5F06FF01803584364
:1022F00001EB800006EB0010B0FBF5F000F00F00E2
:1023000021681044886070BDA0FB010192185B41F8
:10231000FDF75CFF0146B0FBF5F00201B1FBF5F003
:102320006FF01803584301EB800006EBC000B0FBD0
:10233000F5F000F0F80002EB4002B1FBF5F0584375
:1023400001EB800006EBC000B0FBF5F000F00700E9
:10235000D6E7000000100140001401408162828530
:10236000C28500210164222280F83E2080F83C10C2
:10237000016921B10168CA6842F48072CA600168CB
:102380004A6942F001024A610068C16841F02001D7
:10239000C160002070472DE9F041984617460E466F
:1023A0000446069D27E0681C25D02DB1FEF754FC9D
:1023B000A0EB0800A8421ED920680C3050E8001F8E
:1023C00021F4D07140E80012002AF5D120681430C1
:1023D00050E8001F21F0010140E80012002AF5D169
:1023E000202084F83D0084F83E00002084F83C0062
:1023F0000320BDE8F0812068006836EA000004D0C0
:102400000020B842CFD00020F3E70120F9E7000018
:102410000148FEF777BF000034000020FEE700000F
:102420000FB4054B10B503A9044A029800F0D8FA7E
:1024300010BC5DF814FB0000113100082C000020D6
:102440004100080218BF04200A0E18BF40F0010026
:102450004FF07F4232EA010108BF40F0020001283C
:1024600008BF052070470907090E002804DB00F1AA
:10247000E02080F80014704700F00F0000F1E02029
:1024800080F8141D7047000010B54FF00E402DED80
:10249000028BB0EE408A18EE104A00EB4400B0F117
:1024A000506F4AD84FF0FC40B0EB440F22D2B0EE50
:1024B000C80AF7EE000A30EEC00AF6EE000A60EE37
:1024C000208A18EE900A00F081FE01EE100A14F046
:1024D000004F1DBFDFED2D0A9FED2D0AB1EE411A11
:1024E000DFED2C0A08BF9FED2C0AF8EE001A21EE52
:1024F000218A05E0DFED290A68EE088AB0EE600A5D
:102500009FED271ADFED271A30EE080A48EE811AF0
:102510009FED251A08EEA11ADFED241A48EE811A64
:102520009FED231A08EEA11A68EE281ABDEC028B63
:1025300001EE810A30EE200A10BD4FF0E440B0EB0E
:10254000440F0CD918EE100AFFF77AFF042808BFD1
:1025500000F066F9B0EE480ABDEC028B10BD4FF0FA
:102560007F40B0EB440F07D2B0EE480ABDEC028BBF
:10257000BDE8104000F046B9012000F069F9BDEC5B
:10258000028BBDE8104000F043B900000000C9BF55
:1025900022AAFDB90000C93F22AAFD3900000000AF
:1025A00024FE1C3DC78AD83C1E67383D1B93993DCD
:1025B000AFAA2A3E10EE100A10B510EE901A4FF096
:1025C000684202EB40032DED028BB3F1654F3CBF37
:1025D00002EB4102B2F1654F7CD200BFC0F3C7539A
:1025E000C1F3C7529A1A1B2A09DD10F0004F14BF1D
:1025F0009FED6E0A9FED6E0ABDEC028B10BD12F1CD
:102600001A0F1BDA11F0004F09D010F0004F0CBF69
:102610009FED680A9FED680ABDEC028B10BD80EE4D
:10262000208A18EE100AFFF70BFF042808BF00F0FD
:10263000F7F8B0EE480ABDEC028B10BD4200B2EBD9
:10264000410F37D910F0004F19BFDFED5C1A9FED35
:102650005C1ADFED5C1A9FED5C1AB0EE602A0A4648
:10266000F1EE400A80F00041B0EE420A10460A1A2C
:102670005200B2F1807F34D2484010F0004FDFEDBD
:10268000532A9FED533A1DBFBEEE002A71EEE21AA7
:1026900031EE431AB6EE002A04BF71EEA21A31EEF3
:1026A000031AF0EE402A42EE602A40EE020A82EE61
:1026B000A02A18E011F0004F04BF9FED461AF0EE7B
:1026C000411AD4D010F0004F1CBFDFED431A9FED2C
:1026D000431A00E026E004BFDFED411A9FED411AE6
:1026E000C5E780EE202A22EE020ADFED3F0ADFED89
:1026F0003F2ABDEC028B40EE202ADFED3D0A40EE82
:10270000220ADFED3C2A40EE202ADFED3B0A40EEB4
:10271000220A22EE000A00EE201A31EE020A30EE02
:10272000210A10BD4FF07F42B2EB400F28BFB2EB41
:10273000410F05D2BDEC028BBDE8104000F065B83A
:1027400040EA01035B0008BF41F0FF410BD0B2EB50
:10275000400F08BFB2EB410F08D120F0804000EEDF
:10276000100A21F0804100EE901A37E7B2EB400FDB
:1027700012BF5FEA410240F0FF4001F000413FF428
:102780002DAF4A0092EA40033FF528AF002AACBFC4
:102790009FED1A1A9FED1A1A20EE010A60EE810AC7
:1027A00010EE100A10EE901A18E70000DB0FC9BFF8
:1027B000DB0FC93FDB0F4940DB0F49C00000C9BF39
:1027C00022AAFDB90000C93F22AAFD390060ED3EF2
:1027D000C30ACE3700000000000049C022AA7DBA1B
:1027E0000000494022AA7D3A2DAD65BD8FB8D53D88
:1027F0000FB511BE61C84C3EA8AAAABE0000804F0A
:102800000000802F30EE000A704730EE200A70473B
:10281000DFED020A80EEA00A704700000000000011
:102820009FED020A20EE000A704700000000001031
:1028300002E008C8121F08C1002AFAD17047704789
:10284000002001E001C1121F002AFBD170470000E7
:102850000149086070470000300000202DE9FF5F4B
:1028600082B00021DDE90430020DDDF840B0034301
:1028700018D044F61050A2F2FF32424315141198BA
:1028800001281FD0A5EB0B00401C5FEA000A4FF0A7
:1028900000064E4FDFF83891B046504615D5CAF1C4
:1028A000000413E0119801244AA3012801D16FEA22
:1028B0000B010298119AC0E90031C0E9024206B04A
:1028C000BDE8F09FCBF10000DFE704460021404A5D
:1028D000491842EB0450CDE9001012E0E00707D0A0
:1028E00032463B4640464946FDF75AFD80468946FA
:1028F00032463B4610461946FDF752FD06460F4646
:102900006410002CEAD1DDE90401DDE90023BAF10D
:10291000000F06DAFDF744FD42464B46FDF740FD49
:1029200005E0FDF7AFFD42464B46FDF7ABFD044623
:102930000E460022284BFDF739FE03D84FF0FF303A
:10294000014607E00022254B20463146FDF781FC79
:10295000FDF73BFF102409E0002C0ADB0A220023CC
:10296000FDF734FC039B30321A55641E50EA010215
:10297000F2D1641C039AC4F111031444119A012A80
:1029800003D0012208430DD10AE0084304D00020FF
:102990004FF0110B119072E7A3EB0B056D1E0DE0CC
:1029A0005B4504DD4FF0000205F1010504E003DAA8
:1029B0004FF00002A5F10105002AECD00298119910
:1029C000C0E90231C0E9004579E700000000144089
:1029D0000000F03F300000000000F0430000E03F46
:1029E0002DE9FF4F95B09B468946064600250FE22C
:1029F000252877D100242746F84A0121059400E0D4
:102A0000044316F8013F203B01FA03F01042F7D1CE
:102A100030782A2811D06FF02F033078A0F13002DF
:102A2000092A16D8059A44F0020402EB820203EB4D
:102A300042021044761C0590EFE759F8042B0592EA
:102A4000002A03DA504244F40054059044F0020492
:102A5000761C30782E2816D116F8010F44F00404A5
:102A60002A280DD06FF02F023078A0F13003092B07
:102A700009D807EB870302EB4303C718761CF3E77B
:102A800059F8047B761C30786C280FD006DC4C2873
:102A900017D068280DD06A2814D104E0742810D00B
:102AA0007A280FD10DE044F400140AE044F48014B5
:102AB00001E044F440147278824202D104F580149B
:102AC000761C761C307866280BD013DC582877D01B
:102AD00009DC002875D04528F6D04628F4D04728D0
:102AE0001AD19DE118E0632835D0642879D0652893
:102AF00012D195E1702873D008DC6728F1D06928DD
:102B00006FD06E280DD06F2806D1B5E073282CD079
:102B1000752875D0782874D05A46179990476D1C3F
:102B200075E1C4F30250022809D003280DD0D9F86A
:102B3000001004280DD00D6009F1040967E1D9F8EF
:102B40000010EA17C1E90052F6E7D9F800100D802D
:102B5000F2E70D70F0E719F8041B8DF80010002063
:102B60008DF80100EA46012003E059F804AB4FF06C
:102B7000FF3061074FF0000102D40DE008F10101C0
:102B80008846B9420FDA8045F8DB1AF808100029A8
:102B9000F4D108E008F1010188468142FADB1AF815
:102BA00008100029F6D105985B46A0EB08072146DE
:102BB0003846179A00F094FA284400EB080507E01D
:102BC0004DE029E10DE01AF8010B5A46179990479C
:102BD000B8F10108F7D25B4621463846179A13E14F
:102BE00042E00A220092C4F302524FF0000A022A85
:102BF00008D059F804CB032A4FEAEC710AD00DE053
:102C000029E02AE009F1070121F00702F2E802C1F8
:102C1000914609E00FFA8CFC4FEAEC71042A03D1CB
:102C20004FFA8CFC4FEAEC71002907DA0A460021C2
:102C3000DCF1000C61EB02012D2202E0220504D53B
:102C40002B228DF80420012203E0E20701D020228C
:102C5000F7E7904659E00A2102E010220DE010212A
:102C60004FF0000A00910BE010224FF0000A44F0F0
:102C700004040827009203E008224FF0000A0092A3
:102C8000C4F30252022A05D059F804CB0021032ACA
:102C900008D009E009F1070121F00702F2E802C1BA
:102CA000914605E01FFA8CFC042A01D10CF0FF0CC0
:102CB0004FF00008220728D5702806D0009B83F02B
:102CC000100353EA0A0305D00EE040228DF80420D9
:102CD000012208E05CEA010206D030228DF80420CF
:102CE0008DF8050002229046009B83F0080353EA0A
:102CF0000A030AD15CEA010201D1620705D530223C
:102D00008DF804204FF001087F1E582804D034A00D
:102D100003900EA802900DE036A0F9E753466046F6
:102D2000009AFDF753FA84460398825C0298401E8D
:102D3000029002705CEA0100F0D1029806A9081A1C
:102D400000F1200A600702D524F4803400E0012756
:102D5000574502DDA7EB0A0000E0002000EB0A0166
:102D6000009005984144401A0590E00306D45B4664
:102D70002146179A059800F0B3F90544002706E0AC
:102D800001A85A46C05D179990476D1C7F1C4745A6
:102D9000F6DBE0030CD55B462146179A059800F058
:102DA0009FF9054404E030205A46179990476D1C5E
:102DB0000099481E00900029F5DC08E0029802996D
:102DC0005A460078491C0291179990476D1CBAF138
:102DD0000001AAF1010AF1DC65E100000928010007
:102DE0003031323334353637383961626364656681
:102DF0000000000030313233343536373839414243
:102E0000434445460000000000F058F90544761C94
:102E1000307800287FF4ECAD19B02846BDE8F08F7B
:102E2000620700D4062709F1070222F0070CFCE82C
:102E30000223E14603F000485FEA080C02D00FF2DB
:102E4000702C0DE05FEA045C02D50FF2682C07E0FD
:102E50005FEAC47C02D00FF2602C01E0AFF2700C8C
:102E60004FF0FF3823F00043CDF850C065280CD058
:102E700006DC452809D046281DD047283DD13DE035
:102E8000662818D067287ED138E00021112F01DB99
:102E9000112000E0781CCDE9000106A90EA8FFF77B
:102EA000DDFCDDE90F010E9A03910021009207F18C
:102EB000010A04914DE04FF000400097CDE9011068
:102EC00006A90EA8FFF7CAFCDDE90F0203920E9BCC
:102ED00011990022DDF80CA00093049211B9791C1D
:102EE00000EB010AB7EB0A0004D4C0F1FF3007F190
:102EF000010A0490AAEB0700019044E0012F00DAD8
:102F000001270021112F01DD112000E03846CDE915
:102F1000000106A90EA8FFF7A1FCDDE90F010E9A3A
:102F20000391002104910092BA4621070CD4039921
:102F3000514500DA8A46BAF1010F05DD009AAAF17F
:102F40000101515C302908D0B84202DA10F1040FB7
:102F500006DA0121CDE9011015E0AAF10101E9E746
:102F6000002805DC049901440491AAEB000102E069
:102F7000411C514500DD8A460499401A401C0190CD
:102F80004FF000400290200704D40198504501DB27
:102F9000CDF8048000208DF84F0002980DF14F0706
:102FA000B0F1004F25D02B200E9002984FF0020870
:102FB00000280CDA404202902D200E9007E00A21F2
:102FC0000298FDF727FB3031029007F8011DB8F198
:102FD0000001A8F10108F2DC02980028EFD1791E67
:102FE0000E980870307800F0200040F0450007F897
:102FF000020D12A8C01B00F107081498007800B158
:10300000012000EB0A01019801EBE07105984144B1
:10301000401A401E0590E00306D45B462146179AED
:10302000059800F05DF805441498007818B15A46E8
:10303000179990476D1CE00324D55B462146179AEB
:10304000059800F04DF805441CE00498002807DBC3
:10305000DDE90301884203DD0098405C179901E037
:10306000179930205A469047049805F10105401CF5
:1030700004900198401E019004D12E205A461799C1
:1030800090476D1CBAF10001AAF1010ADDDC05E0F0
:1030900017F8010B5A46179990476D1CB8F10001BB
:1030A000A8F10108F4DC5B462146179A0598ABE6C7
:1030B0002D0000002B000000200000002DE9F04151
:1030C000044600251E461746880404D405E0394608
:1030D0002020B0476D1C641EF9D52846BDE8F0815C
:1030E0002DE9F041044600251E469046C80301D54F
:1030F000302700E02027880404D505E04146384603
:10310000B0476D1C641EF9D52846BDE8F08100006B
:1031100013B540F6FF73012269460248FEF7BEFA76
:1031200000981CBD3400002010EE100AF6EE000AD4
:10313000074960EE200AA1EB600000EE100A20EEC5
:10314000801AF7EE080A41EE400A20EE800A704726
:10315000DF59375F8AB0FDF78DFDFEF797FFFEF769
:103160008FFDFEF7C3FDFEF731FFFEF72DFDDFED0E
:10317000160AB2EE090AFDF7F3FB00246A4601A91C
:1031800002A8FEF703FC03AA04A905A8FEF786FC23
:10319000DDED002A9DED012ADDED021A9DED031AF9
:1031A000DDED040A9DED050AFDF7FAFB2346641CDC
:1031B00008AA07A906A8FDF733FB06A890EC030AA6
:1031C000FEF712FFDAE700009A99993E10B500EE7B
:1031D000100A2DED028BB1EEC08A18EE100A20F015
:1031E0000040C0F1FF40C00F0AD010EE100A20F0DE
:1031F0000040C0F1FF40C00F04BF0120FFF728FBD3
:1032000018EE100ABDEC028B10BD0000000000009B
:103210000000010203040607080900000000010283
:1032200003040000443200080000002034000000C5
:1032300030280008783200083400002064040000C0
:1032400040280008010000001000000000000000FD
:103250000024F4000000000000000000CDCCCC3DB4
:103260000000803F0000000000000000000000009F
:08327000000000000000000056
:040000050800019559
:00000001FF
