:020000040800F2
:1000000068050020A9010008611F0008E51B000821
:10001000491F00083107000885250008000000007E
:10002000000000000000000000000000651F000844
:100030003307000800000000631F0008671F000866
:10004000C3010008C3010008C3010008C301000880
:10005000C3010008C3010008C3010008C301000870
:10006000C3010008C3010008C3010008C301000860
:10007000C3010008C3010008C3010008C301000850
:10008000C3010008C3010008C3010008000000000C
:10009000000000000000000000000000C301000894
:1000A000C3010008C3010008C3010008C301000820
:1000B000C3010008C301000811200008C3010008A3
:1000C000C3010008C3010008C3010008C301000800
:1000D000C301000879250008C301000800000000E2
:1000E000C3010008C3010008C301000800000000AC
:1000F000000000000000000000000000C301000834
:1001000000000000C3010008C3010008C30100088B
:1001100000000000000000000000000000000000DF
:10012000C3010008C3010008C3010008C30100089F
:10013000C3010008000000000000000000000000F3
:10014000000000000000000000000000C3010008E3
:10015000C3010008C3010008C3010008C30100086F
:10016000C3010008C30100080000000000000000F7
:10017000000000000000000000000000000000007F
:1001800000000000C30100080000000000000000A3
:10019000C3010008DFF80CD000F0B8FA00480047AF
:1001A000B52E00086805002006488047064800472D
:1001B000FEE7FEE7FEE7FEE7FEE7FEE7FEE7FEE717
:1001C000FEE7FEE701200008950100082DE9F05F39
:1001D0000546002092469B468846064681464024B6
:1001E0001BE0284641464746224600F0F8F95346B0
:1001F0005A46C01A914110D311461846224600F0C3
:10020000DFF92D1A67EB01084F4622460120002135
:1002100000F0D6F917EB00094E41201EA4F10104AD
:10022000DFDC484631462A464346BDE8F09FD2B25D
:1002300001E000F8012B491EFBD270470022F6E7CF
:1002400010B513460A4604461946FFF7F0FF20464C
:1002500010BD2DE9FE4F804681EA0300C00F0C4619
:10026000009021F0004123F00045B8EB0200A941C5
:1002700005D24046214690461C460B46024623F0D6
:100280000040104347D0270DC7F30A00C3F30A51BB
:100290000290401A019040286BDAC3F3130040F437
:1002A000801B0098924620B10023D2EB030A63EB37
:1002B0000B0B01985946C0F14002504600F080F9FE
:1002C00006460D4650465946019A00F098F910EB43
:1002D00008006141002487EA115284EAE7731A4357
:1002E00040D0009A62B3019A012A4FEA075215DC06
:1002F000001B61EB02014FF0004202EA0752CDE918
:100300000042001C41F5801132462B4600F098F95E
:1003100003B0BDE8F08F40462146F9E7001B61EBD2
:100320000201001C41F5801300185B412018A2F562
:10033000001747EB030140EAD570B6196D4111E093
:100340006D084FEA360645EAC0754FEA0752001BB2
:1003500061EB0201001C41F5801149084FEA3000B1
:100360000019514132462B4603B0BDE8F04F00F072
:1003700058B90098012240000023D0EB020263EB41
:10038000E073009821464FEAE074B8EB000061EB9F
:100390000401E9E783F000435BE781F0004158E79F
:1003A0002DE9FE4F81EA030404F0004421F00041EE
:1003B00000944FF0000B23F0004350EA01045ED09C
:1003C00052EA03045BD0C3F30A54C1F30A552C4428
:1003D000A4F2F3340194A0FB0254C1F3130141F4DD
:1003E0008011C3F3130343F4801301FB024400FBA9
:1003F000034E840A970A44EA815447EA8357A4FBD0
:10040000076802958D0A05FB07854FEA932C04FBCC
:100410000C542705029D4FEA065847EA1637B5EBFC
:1004200008056EEB070C870E920E47EA811742EA29
:100430008312A7FB0201B6EB0B0164EB00042B0D4A
:1004400043EA0C335E1844EB1C50DA465146E7FB96
:100450000201C5F313044FEA0B3343EA14534FEA86
:100460000432019C43EA0603A4F10C040294009CAC
:10047000CDE900B400F0E4F803B0BDE8F08F00204F
:100480000146F9E72DE9F04D81EA030404F0004B41
:1004900021F0004514464FF0000A23F0004150EAD5
:1004A000050220D054EA01021DD0C5F30A570246C6
:1004B000C5F31303C1F31300C1F30A5640F48015CA
:1004C00043F48013A7EB0608101BD64608F2FD384C
:1004D00073EB050002D308F1010801E092185B41BB
:1004E000B8F1000F03DA00200146BDE8F08D0020CE
:1004F0004FF48011064684460EE0171B73EB050788
:1005000005D3121B63EB050306434CEA010C4908B3
:100510004FEA300092185B4150EA0107EDD152EAF0
:10052000030012D082EA040083EA0501084305D0E3
:10053000101BAB4106D20122002306E000224FF03F
:10054000004302E06FF0010253101AEB06004CEB7F
:10055000085110EB0A0041EB0B01BDE8F04D00F033
:1005600060B8000030B5041E71F1000404DB4FF0E8
:100570000044404264EB0101141E73F1000405DBEA
:100580001C464FF00043524263EB0403994208BFFC
:10059000904230BD30B50B46014600202022012498
:1005A00009E021FA02F59D4205D303FA02F5491B41
:1005B00004FA02F52844151EA2F10102F1DC30BD57
:1005C000202A04DB203A00FA02F100207047914013
:1005D000C2F1200320FA03F3194390407047202A08
:1005E00004DB203A21FA02F00021704721FA02F3DD
:1005F000D040C2F120029140084319467047202A9A
:1006000006DBCB17203A41FA02F043EAE07306E03A
:1006100041FA02F3D040C2F120029140084319464A
:10062000704710B5141E73F1000408DA401C41F144
:10063000000192185B411A4301D120F0010010BD66
:100640002DE9F04D92469B4611B1B1FA81F202E0DC
:10065000B0FA80F220329046FFF7B2FF04460F4610
:1006600040EA0A0041EA0B0153465A46084313D0B8
:10067000114653EA010019D0C8F140025046FFF775
:10068000AEFF05460E46504659464246FFF798FFD4
:10069000084305D0012004E020463946BDE8F08D2E
:1006A0000020054346EAE0762C4337430A98630569
:1006B000E40AA0EB08000022FD0A44EA47540A308D
:1006C00002D500200146E9E7010510196941DDE97D
:1006D000084500196941BDE8F04DA2E7C1F30A528F
:1006E000C1F3130140F2FF3341F480119A4202DA60
:1006F00000200146704740F233439A42A2F233424F
:1007000002DC5242FFF76BBFFFF75ABF064C074DA2
:1007100006E0E06840F0010394E8070098471034D1
:10072000AC42F6D3FFF73AFD002F0008202F000857
:10073000FEE7704772B6FEE72DE9F0410446876D8B
:1007400000F04CF9064694F835000025022806D042
:100750008020606584F834500120BDE8F081206875
:10076000016821F0160101602068416921F08001D3
:100770004161206C08B9A06C20B12068016821F0AB
:10078000080101602068016821F0010101600CE0AE
:1007900000F024F9801B052807D92020606503207C
:1007A00084F8350084F83450D7E720680068C00723
:1007B000EED194F85C103F208840B860012084F8A6
:1007C000350084F834500020C7E790F8351002292E
:1007D00003D08021416501207047052180F8351044
:1007E0000068016821F001010160002070470000ED
:1007F0002DE9F84FDFF8B8A10022012403254FF0BE
:100800000F090AF1040BAAF1040E00BF0B6804FAE9
:1008100002F63340B34273D10F7907F00307012F7B
:1008200001D0022F16D187684FEA420805FA08FC6A
:1008300027EA0C07D1F80CC00CFA08FC4CEA070CAC
:10084000C0F808C04768B7430E79C6F30016964053
:100850003E4346600E79F643B6070DD0C768560092
:1008600005FA06FC27EA0C07D1F808C00CFA06FCCA
:100870004CEA070CC0F80CC00E7906F00306022EF5
:1008800010D1D60800EB8608D8F8206057074FEA49
:10089000D76C09FA0CF7BE430F6907FA0CF7374318
:1008A000C8F8207006684FEA420C05FA0CF7BE4300
:1008B0000F7907F0030707FA0CF7374307604E6814
:1008C00016F4403F6DD03B4E376847F480473760A1
:1008D000366822F0030706F480460096364E07EB92
:1008E000060CDCF8086897073F0F09FA07F826EAB4
:1008F0000806DFF8C880404503D14FF000081EE02D
:100900004FE0DFF8BC80404502D14FF0010816E00F
:10091000DFF8B080404502D14FF002080FE0DFF869
:10092000A880404502D14FF0030808E0DFF89C8022
:10093000404502D14FF0040801E04FF0070808FAE3
:1009400007F848EA0608CCF80888DAF80060574645
:10095000D1F804C09E435FEACC2C00D51E433E6014
:10096000DBF800605F46D1F804C09E435FEA8C2C40
:1009700000D51E433E60DEF800607746D1F804C023
:100980009E435FEA8C3C00D51E433E60084F083F03
:100990003E68D1F804C09E435FEACC3C00D51E43BC
:1009A0003E60521C102AFFF431AFBDE8F88F000002
:1009B000083C014044380240003001400000024041
:1009C0000004024000080240000C024000100240F7
:1009D0000AB1816170470904FBE7000001488068A3
:1009E000704700000000002002488168027811442E
:1009F00081607047000000200B4810B5016841F489
:100A000000710160016841F480610160016841F496
:100A100080710160032000F06FF80F2000F006F8ED
:100A200000F024F8002010BD003C024070B50D4DD0
:100A300004464FF47A712878B1FBF0F00A4909684E
:100A4000B1FBF0F000F00AFB48B9102C07D20022ED
:100A50002146501E00F030F800206C6070BD01206F
:100A600070BD0000000000200C0000200A4808B5FE
:100A7000016841F480410160006800F4804000900A
:100A80000548001F016841F080510160006800F0D6
:100A90008050009008BD000044380240002809DB67
:100AA00000F01F02012191404009800000F1E02088
:100AB000C0F8001170470000F0B40E4B1B680C46E4
:100AC000C3F30223C3F10705042D00D90425191D22
:100AD000072901D2002300E0DB1E012606FA05F1FA
:100AE000491E214099409E40761E16403143F0BC7D
:100AF00001F05ABD0CED00E0064900F0070208685D
:100B00004FF6FF03184040EA0220034A10430860F2
:100B1000704700000CED00E00000FA052DE9F047F9
:100B20000E46050065D0DFF81481D8F80000F7B252
:100B300000F00700B04207D288F80070D8F8000033
:100B400000F00700B04254D128683D4C810712D50F
:100B5000400703D5206840F4E05020602878000763
:100B600003D5206840F4604020602068A96820F028
:100B7000F000084320602878C0072DD0304968680D
:100B80000839012812D0022813D0032811D009688F
:100B9000890700292DDA216821F003010143216032
:100BA000FFF71CFF814641F2883A0EE0096889038D
:100BB000EFE709688901ECE7FFF710FFA0EB0901F7
:100BC000514502D90320BDE8F0872068696800F02C
:100BD0000C00B0EB810FEFD1D8F80010404601F0C7
:100BE0000701B14207D90770006800F00700B04262
:100BF00001D00120E7E72878400705D52068E9689B
:100C000020F4E050084320602878000706D52068CB
:100C1000296920F4604040EAC100206000F038F803
:100C20002168084AC1F30311515CC84006490860B5
:100C300006480068FFF7FAFE0020C4E7003C0240C7
:100C400008380240E82E00080C00002004000020B4
:100C50000448054900680968044AC1F38221515CCF
:100C6000C84070470C00002008380240F82E0008E9
:100C70000448054900680968044AC1F34231515CDF
:100C8000C84070470C00002008380240F82E0008C9
:100C9000154810B5006810F00C02144813D041102C
:100CA000042A0FD0082A0ED10F4C241F2268236873
:100CB00002F03F025B0207D52068C0F38810A0FB5A
:100CC000010106E0084610BD2168C1F38811A1FBAF
:100CD00000010023FFF77AFA2168C1F30141491CA2
:100CE0004900B0FBF1F010BD083802400024F400C8
:100CF0002DE9F84F04006ED02078DFF84C93C00740
:100D0000A9F104054AD009F104000168C1F3810189
:100D1000012908D00068C0F3810002280AD1D9F85F
:100D20000000400206D52868800337D56068002897
:100D3000E1D033E06068B0F5803F10D0B0F5A02F6F
:100D4000286810D020F480302860286820F48020A3
:100D500028606068A8B1FFF741FE06460DE02868EC
:100D600040F48030F4E740F480202860F7E700BFCB
:100D7000FFF734FE801B642873D828688003F7D5FA
:100D80000CE0FFF72BFE064605E000BFFFF726FE4E
:100D9000801B6428F0D828688003F7D42078DFF817
:100DA000AC8280074FF0000A3ED5A748001D0168BD
:100DB00011F00C0F08D00068C0F3810002280BD19D
:100DC000D9F80000400207D42868800716D5E068EB
:100DD000012800D112E033E1E068B8B10120C8F881
:100DE0000000FFF7FBFD064605E000BFFFF7F6FD3C
:100DF000801B0228C0D828688007F7D52868216999
:100E000020F0F80040EAC10028600DE0C8F800A01A
:100E1000FFF7E4FD064604E0FFF7E0FD801B022833
:100E20001FD828688007F7D42078000722D5864F7E
:100E300087486169703771B101210160FFF7CEFD0C
:100E4000064604E0FFF7CAFD801B022809D838686F
:100E50008007F7D50EE0C0F800A0FFF7BFFD0646FB
:100E600005E082E0FFF7BAFD801B02287DD83868D4
:100E70008007F7D42078400768D5DFF8CCB1002789
:100E80000BF13C0BDBF80000C0000BD4DBF80010CA
:100E900041F08051CBF80010DBF80000012700F092
:100EA000805000906B4E3068C00510D4306840F41C
:100EB00080703060FFF792FD009005E0FFF78EFD37
:100EC0000099401A022850D83068C005F6D55E4E09
:100ED000A0686C3601280FD00528306810D020F0AB
:100EE00001003060306820F004003060A068B8B1C4
:100EF000FFF774FD00900FE0306840F00100F4E768
:100F000040F004003060F7E7FFF768FD0099411AF0
:100F100041F28830814266D830688007F4D50EE00F
:100F2000FFF75CFD009007E0FFF758FD0099411ABC
:100F300041F28830814256D830688007F4D42FB10E
:100F4000DBF8001021F08051CBF80010A069C8B385
:100F50003D49091D0968C1F3810102294AD00228CF
:100F6000504607D0C8F8600000E03CE0FFF736FDCF
:100F700004463BE04746C8F86000FFF72FFD0646F1
:100F800005E000BFFFF72AFD801B02282BD8286848
:100F90008001F7D4D4E907010843A16A2E4A490821
:100FA00002EB0141626A41EA8211084394F82C1075
:100FB00040EA0161C9F8001001203866FFF70EFD14
:100FC000044606E03EE000BFFFF708FD001B0228D4
:100FD00009D828688001F7D534E000BFFFF7FEFC90
:100FE000001B022802D90320BDE8F88F2868800181
:100FF000F4D427E00128F7D0D9F80000E26900F422
:10100000800191421CD1226A00F03F01914217D128
:1010100047F6C071626A0140B1EB821F10D1A26A2B
:101020004FF0FF3300F4403103EB5202B1EB024FBB
:1010300006D194F82C1000F07060B0EB016F01D075
:101040000120D1E70020CFE70438024000004742EA
:10105000800E4742007000400000FFFF10B5401EA8
:10106000B0F1807F01D3012010BD4FF0E02460611A
:101070000F21601701F098FA0020A061072020617D
:10108000002010BD7047704770B590F83C20012AD1
:101090002CD0012480F83C40022280F83D200368D7
:1010A0005A689D6822F070060A6832435A60104BF5
:1010B00002689A420ED0B2F1804F0BD00D4B9A428B
:1010C00008D00D4B9A4205D00C4B9A4202D00C4BE3
:1010D0009A4204D1496825F080031943916080F851
:1010E0003D40002180F83C10084670BD022070BDD4
:1010F000000001400004004000080040000C0040D7
:10110000004001402DE9F041054600684949884208
:101110007ED1287F01281ED002281ED004281ED090
:10112000082875D10324A100284600F01DFBDFF834
:1011300008814249042618F804200827B2B341F870
:101140002400A0000DD0B6EB840F14D12868016AEA
:1011500021F0A00116E00024E5E70124E3E70224E2
:10116000E1E72868016A21F00A0101622868016A42
:1011700041F0020145E02868B7EB840F016A0AD10B
:1011800021F420610162B6EB840F07D12868016A5F
:1011900041F0200135E021F42041F3E72868B7EB66
:1011A000840F016A03D141F400712AE002E041F4A6
:1011B000005126E0214A103242F824001D4A51F81D
:1011C00024102C321268884201D3401A01E0511ACF
:1011D00008441A49203141F82400214600F0FEFD60
:1011E000A00008D0B6EB840F14D12868016A21F062
:1011F000A00116E00CE02868016A21F00A010162F2
:1012000010E0016218F8041091B1002108F80410F0
:10121000BDE8F0812868B7EB840F016A05D121F49D
:10122000206101622868016AEBE721F42041F8E7B8
:101230000121EBE7000800401800002024010020F5
:101240002DE9F041054690F83C0000260C460128A7
:1012500010D0012085F83C0072B1042A1CD0082A65
:101260002CD00C2A50D00126002085F83C003046B6
:10127000BDE8F0810220FBE7D4E90012E3682868AA
:1012800000F0BAFF2868816921F00C0181612868AB
:101290008169A26811430FE0D4E90012E36828686D
:1012A00000F0E0FF2868816921F4406181612868CD
:1012B0008169A26841EA02218161D5E72868D4E901
:1012C000002C277B016A21F480710162C169036AE5
:1012D00021F0030141EA0C0121F0F00C39074FF431
:1012E00020674CEA116123F4206307EA02221A43C3
:1012F000C16102622868C16921F00C01C1612868DE
:10130000C169A268114328E02868D4E90027E16890
:10131000036A23F480530362D0F81CC0036A2CF4E0
:10132000407C4CEA07274FF6FF7C27F470470CEA15
:10133000013139434FF4204723F4204307EA0232B6
:101340001A43C16102622868C16921F44061C16128
:101350002868C169A26841EA0221C16184E710B529
:10136000040003D094F83D0010B107E0012010BD47
:10137000002084F83C00204600F01EF8022084F88B
:101380003D00211D206800F049FE012084F8460040
:1013900084F83E0084F83F0084F8400084F841005F
:1013A00084F8420084F8430084F8440084F845003F
:1013B00084F83D00002010BD10B586B0044614210D
:1013C0006846FEF73BFF17492068884227D1164838
:1013D0000021026842F004020260006800F004008C
:1013E000059011481038026842F00202026000685D
:1013F00000F0020005904FF4707000900220CDE9DB
:101400000101CDE9031069460848FFF7F1F9002210
:1014100011461E20FFF750FB1E20FFF73FFB06B0D2
:1014200010BD0000000800404038024000040240A7
:1014300070B50446006801694FF00005C94389078B
:1014400015D4C168C943890711D4E91E016101207F
:101450002077206880698007204602D0FFF752FE7F
:1014600004E000F0D7F8204600F07CF925772068EA
:101470000169C943490717D4C168C943490713D44F
:101480006FF004010161022020772068806910F468
:10149000407F204602D0FFF735FE04E000F0BAF8A6
:1014A000204600F05FF9257720680169C9430907E4
:1014B00016D4C168C943090712D46FF0080101614D
:1014C000042020772068C0698007204602D0FFF7FB
:1014D00019FE04E000F09EF8204600F043F925775D
:1014E00020680169C943C90617D4C168C943C90640
:1014F00013D46FF010010161082020772068C069C3
:1015000010F4407F204602D0FFF7FCFD04E000F01D
:1015100081F8204600F026F9257720680169C94343
:10152000C90708D1C168C943C90704D1891E01612F
:10153000204600F018F920680169C943090609D45A
:10154000C168C943090605D46FF0800101612046D6
:10155000FFF798FD20680169C943490609D4C168AD
:10156000C943490605D46FF040010161204600F0EF
:1015700010F920680169C94389060BD4C168C943C1
:10158000890607D46FF0200101612046BDE8704054
:10159000FFF779BD70BD000030B587B00446142157
:1015A0006846FEF74BFE17492068884227D1164847
:1015B0000024016841F004010160016801F00401A8
:1015C0000591016841F0020101600068022500F008
:1015D000020005904FF440700090CDE90154694637
:1015E0000A48CDE90345FFF703F930200090CDE923
:1015F000015469460648CDE90345FFF7F9F807B0FD
:1016000030BD0000000400403038024000080240B5
:1016100000040240704770B5044690F83C00002674
:101620000D4601280FD0012084F83C006AB1042A3D
:101630001DD0082A2FD00C2A3FD00126002084F884
:101640003C00304670BD022070BD206800F032FDC5
:101650002068816941F0080181612068816921F079
:1016600004018161206881692A69114311E02068C1
:1016700000F048FD2068816941F4006181612068C3
:10168000816921F480618161206881692A6941EA68
:1016900002218161D2E7206800F060FD2068C16905
:1016A00041F00801C1612068C16921F00401C161F4
:1016B0002068C1692A69114311E0206800F07AFDB1
:1016C0002068C16941F40061C1612068C16921F4E9
:1016D0008061C1612068C1692A6941EA0221C16152
:1016E000ACE710B5040003D094F83D0010B107E05A
:1016F000012010BD002084F83C00204600F01EF8B8
:10170000022084F83D00211D206800F087FC0120A4
:1017100084F8460084F83E0084F83F0084F84000D6
:1017200084F8410084F8420084F8430084F84400BF
:1017300084F8450084F83D00002010BD08B500681D
:101740000649884208D10648016841F0020101605B
:10175000006800F00200009008BD00000004004096
:1017600040380240704770470246002041B10429CA
:1017700009D008290AD00C2901D11068006C7047E3
:101780001068406B70471068806B70471068C06BC2
:101790007047704770477047F8B50168044608689D
:1017A000CA684B6910F00F0F4FF0000559D003F0D5
:1017B000010602F49077374365D0C10705D0D10503
:1017C00003D5216C41F001012164410705D5D907FA
:1017D00003D0216C41F002012164810705D5D907AE
:1017E00003D0216C41F004012164010707D502F008
:1017F0002001314303D0216C41F008012164216CA8
:1018000000293AD0800604D5900602D5204600F083
:1018100073FD20684069216CC0F38010090700D473
:1018200060B3204600F041FD20684069400621D5A4
:101830002068143050E8001F21F0400140E80012F9
:10184000002AF5D1A06BA8B16C490165A06BFEF729
:10185000BCFF002811D0A06B016D01B0BDE8F040C5
:10186000084783060FD593060DD52046BDE8F840FE
:1018700000F042BD2046FFF78EFFF8BD2046FFF77F
:101880008AFF2564F8BD266B2023012E79D1C60678
:1018900077D5D60675D5086848680090486940062F
:1018A00040D5A16B086840680004000CEAD0A28D06
:1018B0008242E7D9E085C869B0F5807F2DD02068E5
:1018C0000C3050E8001F21F4807140E80012002A1B
:1018D000F5D12068143050E8001F21F0010140E8E4
:1018E0000012002AF5D12068143050E8001F21F0C2
:1018F000400140E80012002AF5D184F83E3025630B
:1019000020680C3050E8001F21F0100140E8001260
:10191000002AF5D1A06BFEF70FFFA08DE18D401AD4
:1019200081B229E0A08DE18D401A81B2E08D0028BE
:10193000A8D00029A6D020680C3050E8002F22F44F
:10194000907240E80026002EF5D12068143050E84F
:10195000002F22F0010240E80026002EF5D184F885
:101960003E30256320680C3050E8002F22F0100232
:1019700040E80023002BF5D12046FFF70BFFF8BD10
:10198000FFE705062BD5150629D594F83D0021283B
:10199000F5D1A068B0F5805F01D12069B0B1206AAF
:1019A000411C2162216800784860E08C401E0004E0
:1019B000000CE084E3D12068C16821F08001C1609F
:1019C0002068C16841F04001C160D8E7206A008802
:1019D000C0F308004860206A801C2062E5E74006EA
:1019E000CDD55006CBD5CA68204622F04002CA6049
:1019F00084F83D3000F0F5F8C1E700009B220008B4
:101A000070B5040004D094F83D00002510B106E044
:101A1000012070BD84F83C50204600F023F82420BB
:101A200084F83D002068C16821F40051C16020465F
:101A300000F0C2FC2068016921F490410161206836
:101A4000416921F02A0141612068C16841F40051D7
:101A5000C1602564202084F83D0084F83E00002009
:101A600070BD000010B586B0044614216846FEF72C
:101A7000E5FB18492068884229D1174800210268EF
:101A800042F010020260006800F010000590124859
:101A90001438026842F001020260006800F00100A0
:101AA00005904FF4C06000900220CDE901010320B1
:101AB00003900720049069460848FEF799FE00222B
:101AC00011462520FEF7F8FF2520FEF7E7FF06B0B8
:101AD00010BD0000001001404438024000000240E8
:101AE00090F83E30202B0ED159B152B190F83C30D5
:101AF000012B08D0012380F83C300023036300F061
:101B0000E1BC012070470220704700000548064BE9
:101B1000416802785A54491C416001460122034839
:101B2000FFF7DEBF1000002004010020C0000020ED
:101B30002DE9F843044690F83D001F4616460D4631
:101B400020284CD1C5B1BEB194F83C00012846D044
:101B5000012084F83C004FF00008C4F840802120A8
:101B600084F83D00FEF73AFFA6848146E684A0682B
:101B7000B0F5805F03D004E00120BDE8F883206960
:101B800028B12E465FF0000584F83C800EE0002668
:101B9000FAE78021204600F0B2FCA0B9AEB116F8F9
:101BA000010B21684860E08C401EE084E08C4B46CD
:101BB0004FF0000200970028EBD14FF04001204683
:101BC00000F09DFC30B10320D7E735F8020BC0F3DD
:101BD0000800E6E7202084F83D000020CDE7022041
:101BE000CBE77047FEE7000030B587B014216846A8
:101BF000FEF724FB1A480024016841F080010160CF
:101C0000016801F080010591016841F00401016063
:101C1000016801F004010591016841F001010160D2
:101C2000016801F001010591016841F002010160C4
:101C300000680C4D00F0020005900022302128467B
:101C4000FEF7C6FE30200090112001900120CDE962
:101C5000020469462846FEF7CBFD07B030BD000000
:101C6000303802400008024010B58AB000240794C2
:101C70001C2168460894FEF7E1FA224820490160D9
:101C8000A721C0E9011442F20F71C0E90314846175
:101C9000FFF727FD08B1FEF74DFD079407A9194886
:101CA0000894FFF7F1F908B1FEF744FD6020CDE993
:101CB000000402940022694612480494FFF7ABFC2A
:101CC00008B1FEF737FD042269460E48FFF7A3FC72
:101CD00008B1FEF72FFD082269460A48FFF79BFC72
:101CE00008B1FEF727FD0C2269460648FFF793FC72
:101CF00008B1FEF71FFD0348FFF74EFC0AB010BD08
:101D0000000400403000002010B586B000242448B4
:101D10000594049400940194029420490394016072
:101D20005321C0E901144FF6FE71C0E90314846128
:101D3000FFF715FB08B1FEF7FDFC049404A9184851
:101D40000594FFF7A1F908B1FEF7F4FC0120CDE9F5
:101D5000004002940022694611480394FFF770FA8C
:101D600008B1FEF7E7FC042269460D48FFF768FA60
:101D700008B1FEF7DFFC082269460948FFF760FA60
:101D800008B1FEF7D7FC0C2269460548FFF758FA60
:101D9000002801D0FEF7CEFC06B010BD00080040C0
:101DA000780000200C4810B50A4901604FF4165124
:101DB0004160002181600C22C160C0E90412816190
:101DC000C161FFF71DFE002803D0BDE81040FEF7FB
:101DD000B1BC10BD00100140C0000020DFED510A71
:101DE000012955D002294CD09FED4F0A9FED4F1A83
:101DF00001EE900AF8EE611AF4EEC01AF1EE10FA54
:101E000003D2FCEEC01A11EE900A01EE900AF8EE31
:101E1000611AF4EEE01AF1EE10FA03DDFCEEE00ACE
:101E200010EE900A00EE900A4148F8EE600AD0EDFC
:101E3000002A90ED012AD0ED021A30EEC00AC0EE61
:101E4000010A90ED031AE1B3012926D0022939D005
:101E500003294ED1374A92ED030AC2ED030A30EE50
:101E6000C00A72EEC00AC0ED000A71EEC00AC0EDF1
:101E7000020A72EE000AC0ED010A00BF31EE000A4C
:101E800035E09FED2D0ADFED2D0AB0EE401AAFE7E9
:101E90009FED2B0A9FED2B1AAAE7264A92ED010A25
:101EA000C2ED010A30EEC00A72EE800AC0ED000AEF
:101EB00072EE000AC0ED010A71EE800AC0ED020A5E
:101EC000DCE717E01B4A92ED020AC2ED020A30EE8F
:101ED000C00A72EE800AC0ED000A72EE000AC0ED80
:101EE000010A71EEC00A31EE400AC0ED020A80ED2F
:101EF000030A70470F4991ED000AC1ED000A30EE68
:101F0000C00A72EE800AC0ED000A71EE000AC0ED50
:101F1000030A72EE400A31EEC00AC0ED010A80EDFC
:101F2000020A704700C0DA4400409C440000FA43B3
:101F3000540100201C00002000007A440000FA44F4
:101F40000080BB4400007A43FEE700000122024902
:101F50000248FFF7C5BD000010000020C0000020AF
:101F6000FEE770477047FEF73FBD000030B593B005
:101F700030216846FEF762F914210CA8FEF75EF9DD
:101F80001D480025016841F080510160006800F0A3
:101F9000805011901948016821F4404141F40041FA
:101FA00001600068022400F440401190012000907C
:101FB000000401908001CDE9064008AA04205421C4
:101FC00082E813000B906846FEF792FE08B172B6E5
:101FD000FEE70CA90F2081E831004FF48050CDE9D5
:101FE0000F0502210CA8FEF799FD002801D072B65A
:101FF000FEE713B030BD00004038024000700040E2
:102000000248016841F470010160704788ED00E00A
:102010000148FFF70DBA000078000020F0B5026813
:102020001D4B1E4C9F031E4D1E4E984207D0B842BA
:1020300005D0A04203D0A84201D0B04204D122F082
:10204000700C4A6842EA0C02984210D0B8420ED096
:10205000A0420CD0A8420AD0B04208D0124CA042F4
:1020600005D0124CA04202D0114CA04203D122F460
:102070004074CA6822434C6922F080022243026005
:102080008A68C2620A688262984201D10969016362
:1020900001214161F0BD000000000140000400404A
:1020A00000080040000C0040004001400044014096
:1020B0000048014030B5026A22F001020262026A61
:1020C0004368846924F073050C682C4322F00205F0
:1020D0008A682A430A4DA8420BD122F00805CA6833
:1020E00023F440732A434D6922F004021D438B6997
:1020F0002B434360846149684163026230BD000044
:102100000000014030B5026A22F010020262026A49
:10211000436884690D6824F4E64444EA05248D6824
:1021200022F0200242EA05120B4DA8420ED1CD68E2
:1021300022F0800242EA05124D6923F4406343EA2B
:1021400085038D6922F0400243EA85034360846180
:1021500049688163026230BD0000014030B5026A07
:1021600022F480720262036A4268C46923F4007335
:1021700024F073050C682C438D6843EA05230C4D4D
:10218000A8420ED1CD6823F4006343EA05234D69CC
:1021900022F4405242EA05128D6923F4806342EA38
:1021A00005124260C4614968C163036230BD00002A
:1021B0000000014030B5026A22F480520262046AD3
:1021C0004268C3690D6823F4E64343EA05238D683A
:1021D00024F4005444EA0534064DA84204D14D6964
:1021E00022F4804242EA85124260C3614968016478
:1021F000046230BD0000014070B5046A24F001049F
:1022000004628469056A124EB0420ED0B0F1804F6C
:102210000BD0104EB04208D00F4EB04205D00F4E3A
:10222000B04202D00E4EB04203D124F00304144356
:1022300001E044F001041A0724F0F00444EA1262B9
:1022400025F00A0301F00A0119438261016270BDA1
:10225000000001400004004000080040000C004065
:102260000040014030B5046A24F01004046284691F
:10227000056A24F4407444EA022222F470444FF6C2
:10228000FF7202EA03322243A02425F0A00304EAED
:10229000011119438261016230BD10B5806B0021CC
:1022A000C185C184FFF777FA10BD01680C3151E890
:1022B000002F22F4907241E80023002BF5D1016831
:1022C000143151E8002F22F0010241E80023002BD5
:1022D000F5D1016B012909D101680C3151E8002FBA
:1022E00022F0100241E80023002BF5D1202180F8D4
:1022F0003E1000210163704708B590F83E10222976
:1023000001D0022008BD82684FF480539A4201D167
:10231000016921B1816A9A421BD04AB10AE0026880
:10232000816A5268C2F308020A80816A891C08E047
:10233000026972B10268526802F07F020A70816A13
:10234000491C8162C18D491E0904090CC18503D055
:1023500019E002685268F1E70168CA6822F02002B9
:10236000CA600168CA6822F48072CA6001684A695A
:1023700022F001024A61202180F83E10016B012900
:1023800003D0FFF7C3FB002008BD002101630168F3
:102390000C3151E8002F22F0100241E80023002BFD
:1023A000F5D101680A68D20602D50A684968009129
:1023B000818DFFF7EFF9E6E770B504460068016923
:1023C000E26821F44051114301612169A068E2698A
:1023D00008436169114308432168CA6849F20C63E4
:1023E0009A430243CA6020684169A26921F440719E
:1023F0001143416131492068884202D03049884206
:1024000002D1FEF735FC01E0FEF722FCE269002371
:10241000192164253226B2F5004F626828D0A0FB4E
:102420000101930F9200FDF7D1FE0146B0FBF5F0DC
:102430006FF01802504301EB800006EB0010B0FB78
:10244000F5F000F0F002B1FBF5F002EB0012B1FB89
:10245000F5F06FF01803584301EB800006EB001015
:10246000B0FBF5F000F00F0021681044886070BDEB
:10247000A0FB010192185B41FDF7A8FE0146B0FBED
:10248000F5F00201B1FBF5F06FF01803584301EBD2
:10249000800006EBC000B0FBF5F000F0F80002EBA6
:1024A0004002B1FBF5F0584301EB800006EBC000A1
:1024B000B0FBF5F000F00700D6E700000010014087
:1024C0000014014081628285C285002101642222BC
:1024D00080F83E2080F83C10016921B10168CA688B
:1024E00042F48072CA6001684A6942F001024A619E
:1024F0000068C16841F02001C160002070472DE9EB
:10250000F041984617460E460446069D27E0681C93
:1025100025D02DB1FEF762FAA0EB0800A8421ED923
:1025200020680C3050E8001F21F4D07140E8001200
:10253000002AF5D12068143050E8001F21F0010175
:1025400040E80012002AF5D1202084F83D0084F8EC
:102550003E00002084F83C000320BDE8F0812068A4
:10256000006836EA000004D00020B842CFD0002036
:10257000F3E70120F9E700000148FFF70DB900007B
:10258000C0000020FEE700000FB4054B10B503A902
:10259000044A029800F0EAF810BC5DF814FB000051
:1025A0009D2E00082C0000200907090E002804DBDE
:1025B00000F1E02080F80014704700F00F0000F1F7
:1025C000E02080F8141D704702E008C8121F08C1FF
:1025D000002AFAD170477047002001E001C1121FA4
:1025E000002AFBD1704700002DE9FF5F82B0002177
:1025F000DDE90430020DDDF840B0034318D044F6A5
:102600001050A2F2FF3242431514119801281FD036
:10261000A5EB0B00401C5FEA000A4FF000064E4F8E
:10262000DFF83891B046504615D5CAF1000413E0E2
:10263000119801244AA3012801D16FEA0B010298E5
:10264000119AC0E90031C0E9024206B0BDE8F09F2E
:10265000CBF10000DFE704460021404A491842EB75
:102660000450CDE9001012E0E00707D032463B46A7
:1026700040464946FDF794FE8046894632463B4631
:1026800010461946FDF78CFE06460F466410002CD6
:10269000EAD1DDE90401DDE90023BAF1000F06DA31
:1026A000FDF77EFE42464B46FDF77AFE05E0FDF75C
:1026B000E9FE42464B46FDF7E5FE04460E46002283
:1026C000284BFDF74FFF03D84FF0FF30014607E0DE
:1026D0000022254B20463146FDF7BBFDFDF7FEFFEE
:1026E000102409E0002C0ADB0A220023FDF76EFD0E
:1026F000039B30321A55641E50EA0102F2D1641C69
:10270000039AC4F111031444119A012A03D001223F
:1027100008430DD10AE0084304D000204FF0110B0C
:10272000119072E7A3EB0B056D1E0DE05B4504DD18
:102730004FF0000205F1010504E003DA4FF000025A
:10274000A5F10105002AECD002981199C0E90231E7
:10275000C0E9004579E70000000014400000F03FA8
:10276000300000000000F0430000E03F2DE9FF4F83
:1027700095B09B468946064600250FE2252877D16D
:1027800000242746F84A0121059400E0044316F886
:10279000013F203B01FA03F01042F7D130782A289C
:1027A00011D06FF02F033078A0F13002092A16D82B
:1027B000059A44F0020402EB820203EB4202104449
:1027C000761C0590EFE759F8042B0592002A03DAEE
:1027D000504244F40054059044F00204761C3078D2
:1027E0002E2816D116F8010F44F004042A280DD023
:1027F0006FF02F023078A0F13003092B09D807EBD6
:10280000870302EB4303C718761CF3E759F8047BF0
:10281000761C30786C280FD006DC4C2817D068283E
:102820000DD06A2814D104E0742810D07A280FD172
:102830000DE044F400140AE044F4801401E044F490
:1028400040147278824202D104F58014761C761C02
:10285000307866280BD013DC582877D009DC0028A4
:1028600075D04528F6D04628F4D047281AD19DE1E6
:1028700018E0632835D0642879D0652812D195E115
:10288000702873D008DC6728F1D069286FD06E28D3
:102890000DD06F2806D1B5E073282CD0752875D0DF
:1028A000782874D05A46179990476D1C75E1C4F387
:1028B0000250022809D003280DD0D9F800100428AE
:1028C0000DD00D6009F1040967E1D9F80010EA178D
:1028D000C1E90052F6E7D9F800100D80F2E70D705B
:1028E000F0E719F8041B8DF8001000208DF80100A6
:1028F000EA46012003E059F804AB4FF0FF306107CE
:102900004FF0000102D40DE008F101018846B94200
:102910000FDA8045F8DB1AF808100029F4D108E036
:1029200008F1010188468142FADB1AF808100029F3
:10293000F6D105985B46A0EB080721463846179A62
:1029400000F094FA284400EB080507E04DE029E187
:102950000DE01AF8010B5A4617999047B8F1010893
:10296000F7D25B4621463846179A13E142E00A2225
:102970000092C4F302524FF0000A022A08D059F81C
:1029800004CB032A4FEAEC710AD00DE029E02AE0DB
:1029900009F1070121F00702F2E802C1914609E0BE
:1029A0000FFA8CFC4FEAEC71042A03D14FFA8CFC2D
:1029B0004FEAEC71002907DA0A460021DCF1000C2D
:1029C00061EB02012D2202E0220504D52B228DF8B5
:1029D0000420012203E0E20701D02022F7E790461D
:1029E00059E00A2102E010220DE010214FF0000A08
:1029F00000910BE010224FF0000A44F00404082775
:102A0000009203E008224FF0000A0092C4F3025241
:102A1000022A05D059F804CB0021032A08D009E086
:102A200009F1070121F00702F2E802C1914605E031
:102A30001FFA8CFC042A01D10CF0FF0C4FF00008A7
:102A4000220728D5702806D0009B83F0100353EA94
:102A50000A0305D00EE040228DF80420012208E090
:102A60005CEA010206D030228DF804208DF80500C2
:102A700002229046009B83F0080353EA0A030AD11E
:102A80005CEA010201D1620705D530228DF80420ED
:102A90004FF001087F1E582804D034A003900EA8E0
:102AA00002900DE036A0F9E753466046009AFDF724
:102AB0008DFB84460398825C0298401E029002704F
:102AC0005CEA0100F0D1029806A9081A00F1200A78
:102AD000600702D524F4803400E00127574502DD69
:102AE000A7EB0A0000E0002000EB0A010090059827
:102AF0004144401A0590E00306D45B462146179AEC
:102B0000059800F0B3F90544002706E001A85A46ED
:102B1000C05D179990476D1C7F1C4745F6DBE003AD
:102B20000CD55B462146179A059800F09FF905449D
:102B300004E030205A46179990476D1C0099481EB2
:102B400000900029F5DC08E0029802995A460078C6
:102B5000491C0291179990476D1CBAF10001AAF126
:102B6000010AF1DC65E1000009280100303132334F
:102B700034353637383961626364656600000000B9
:102B800030313233343536373839414243444546A3
:102B90000000000000F058F90544761C3078002849
:102BA0007FF4ECAD19B02846BDE8F08F620700D481
:102BB000062709F1070222F0070CFCE80223E14690
:102BC00003F000485FEA080C02D00FF2702C0DE011
:102BD0005FEA045C02D50FF2682C07E05FEAC47C70
:102BE00002D00FF2602C01E0AFF2700C4FF0FF3812
:102BF00023F00043CDF850C065280CD006DC4528F2
:102C000009D046281DD047283DD13DE0662818D080
:102C100067287ED138E00021112F01DB112000E070
:102C2000781CCDE9000106A90EA8FFF7DDFCDDE95F
:102C30000F010E9A03910021009207F1010A0491FD
:102C40004DE04FF000400097CDE9011006A90EA815
:102C5000FFF7CAFCDDE90F0203920E9B11990022D7
:102C6000DDF80CA00093049211B9791C00EB010A65
:102C7000B7EB0A0004D4C0F1FF3007F1010A049059
:102C8000AAEB0700019044E0012F00DA01270021A0
:102C9000112F01DD112000E03846CDE9000106A921
:102CA0000EA8FFF7A1FCDDE90F010E9A03910021A8
:102CB00004910092BA4621070CD40399514500DAD9
:102CC0008A46BAF1010F05DD009AAAF10101515CB3
:102CD000302908D0B84202DA10F1040F06DA0121D7
:102CE000CDE9011015E0AAF10101E9E7002805DCB2
:102CF000049901440491AAEB000102E0411C5145F2
:102D000000DD8A460499401A401C01904FF00040B3
:102D10000290200704D40198504501DBCDF80480CF
:102D200000208DF84F0002980DF14F07B0F1004FD1
:102D300025D02B200E9002984FF0020800280CDAC4
:102D4000404202902D200E9007E00A210298FDF7E4
:102D500021FC3031029007F8011DB8F10001A8F103
:102D60000108F2DC02980028EFD1791E0E98087055
:102D7000307800F0200040F0450007F8020D12A85E
:102D8000C01B00F107081498007800B1012000EB87
:102D90000A01019801EBE07105984144401A401E78
:102DA0000590E00306D45B462146179A059800F08B
:102DB0005DF805441498007818B15A461799904761
:102DC0006D1CE00324D55B462146179A059800F058
:102DD0004DF805441CE00498002807DBDDE90301F9
:102DE000884203DD0098405C179901E01799302074
:102DF0005A469047049805F10105401C049001983B
:102E0000401E019004D12E205A46179990476D1C00
:102E1000BAF10001AAF1010ADDDC05E017F8010BA7
:102E20005A46179990476D1CB8F10001A8F10108A6
:102E3000F4DC5B462146179A0598ABE62D000000AE
:102E40002B000000200000002DE9F0410446002581
:102E50001E461746880404D405E039462020B047B2
:102E60006D1C641EF9D52846BDE8F0812DE9F041BE
:102E7000044600251E469046C80301D5302700E0D1
:102E80002027880404D505E041463846B0476D1C2C
:102E9000641EF9D52846BDE8F081000013B540F660
:102EA000FF73012269460248FEF742FE00981CBDEE
:102EB000C0000020FDF7A0FDFFF758F8FEF794FED4
:102EC000FEF770FFFEF7D0FEFEF71EFFFFF73EF89D
:102ED00001A0FFF759FBFEE768656C6C6F20776F08
:102EE000726C640A00000000000000000000000096
:102EF00001020304060708090000000001020304A0
:102F0000202F00080000002030000000C825000825
:102F1000502F00083000002038050000D825000898
:102F20000100000010000000000000000024F40078
:102F30000000000000000000010000000000003F51
:102F4000000000000000003F0000003F0000000003
:040000050800019559
:00000001FF
